{
  "contractName": "HalveningReleaseSchedule",
  "abi": [
    {
      "inputs": [
        {
          "internalType": "uint256",
          "name": "firstPeriodDistribution_",
          "type": "uint256"
        },
        {
          "internalType": "uint256",
          "name": "halveningCyclePeriods_",
          "type": "uint256"
        },
        {
          "internalType": "uint256",
          "name": "totalHalvenings_",
          "type": "uint256"
        }
      ],
      "stateMutability": "nonpayable",
      "type": "constructor"
    },
    {
      "inputs": [],
      "name": "halveningCyclePeriods",
      "outputs": [
        {
          "internalType": "uint256",
          "name": "",
          "type": "uint256"
        }
      ],
      "stateMutability": "view",
      "type": "function"
    },
    {
      "inputs": [
        {
          "internalType": "uint256",
          "name": "",
          "type": "uint256"
        }
      ],
      "name": "tokensPerPeriodForHalveningCycle",
      "outputs": [
        {
          "internalType": "uint256",
          "name": "",
          "type": "uint256"
        }
      ],
      "stateMutability": "view",
      "type": "function"
    },
    {
      "inputs": [],
      "name": "totalPeriods",
      "outputs": [
        {
          "internalType": "uint256",
          "name": "",
          "type": "uint256"
        }
      ],
      "stateMutability": "view",
      "type": "function"
    },
    {
      "inputs": [
        {
          "internalType": "uint256",
          "name": "_periodIndex",
          "type": "uint256"
        }
      ],
      "name": "getTokensForPeriod",
      "outputs": [
        {
          "internalType": "uint256",
          "name": "",
          "type": "uint256"
        }
      ],
      "stateMutability": "view",
      "type": "function"
    }
  ],
  "bytecode": "0x60c060405234801561001057600080fd5b5060405161059e38038061059e833981810160405281019061003291906100e5565b816080818152505081816100469190610165565b60a0818152505082600080808152602001908152602001600020819055506000600190505b818110156100c757600260008060018461008591906101bf565b81526020019081526020016000205461009e9190610134565b6000808381526020019081526020016000208190555080806100bf906101fd565b91505061006b565b505050506102bb565b6000815190506100df816102a4565b92915050565b6000806000606084860312156100fa57600080fd5b6000610108868287016100d0565b9350506020610119868287016100d0565b925050604061012a868287016100d0565b9150509250925092565b600061013f826101f3565b915061014a836101f3565b92508261015a57610159610275565b5b828204905092915050565b6000610170826101f3565b915061017b836101f3565b9250817fffffffffffffffffffffffffffffffffffffffffffffffffffffffffffffffff04831182151516156101b4576101b3610246565b5b828202905092915050565b60006101ca826101f3565b91506101d5836101f3565b9250828210156101e8576101e7610246565b5b828203905092915050565b6000819050919050565b6000610208826101f3565b91507fffffffffffffffffffffffffffffffffffffffffffffffffffffffffffffffff82141561023b5761023a610246565b5b600182019050919050565b7f4e487b7100000000000000000000000000000000000000000000000000000000600052601160045260246000fd5b7f4e487b7100000000000000000000000000000000000000000000000000000000600052601260045260246000fd5b6102ad816101f3565b81146102b857600080fd5b50565b60805160a0516102b86102e6600039600061017701526000818160f2015261013b01526102b86000f3fe608060405234801561001057600080fd5b506004361061004c5760003560e01c80636fc313e7146100515780637ef597d714610081578063b8f3d9d41461009f578063fea708f6146100cf575b600080fd5b61006b600480360381019061006691906101ae565b6100ed565b60405161007891906101e6565b60405180910390f35b610089610139565b60405161009691906101e6565b60405180910390f35b6100b960048036038101906100b491906101ae565b61015d565b6040516100c691906101e6565b60405180910390f35b6100d7610175565b6040516100e491906101e6565b60405180910390f35b6000807f00000000000000000000000000000000000000000000000000000000000000008361011c9190610201565b905060008082815260200190815260200160002054915050919050565b7f000000000000000000000000000000000000000000000000000000000000000081565b60006020528060005260406000206000915090505481565b7f000000000000000000000000000000000000000000000000000000000000000081565b6000813590506101a88161026b565b92915050565b6000602082840312156101c057600080fd5b60006101ce84828501610199565b91505092915050565b6101e081610232565b82525050565b60006020820190506101fb60008301846101d7565b92915050565b600061020c82610232565b915061021783610232565b9250826102275761022661023c565b5b828204905092915050565b6000819050919050565b7f4e487b7100000000000000000000000000000000000000000000000000000000600052601260045260246000fd5b61027481610232565b811461027f57600080fd5b5056fea264697066735822122028ae26c1d22e116b168635e910a2617f6a77c21a14cf7d58d070d216c76ec85f64736f6c63430008030033",
  "immutableReferences": {
    "1121": [
      {
        "length": 32,
        "start": 242
      },
      {
        "length": 32,
        "start": 315
      }
    ],
    "1125": [
      {
        "length": 32,
        "start": 375
      }
    ]
  },
  "source": "// SPDX-License-Identifier: MIT\r\n\r\npragma solidity ^0.8.3;\r\n\r\nimport \"../../interfaces/IReleaseSchedule.sol\";\r\n\r\n/**\r\n * A release schedule with a \"halvening\" event occuring every few periods.\r\n * At some point, there are no more halvenings.\r\n */\r\ncontract HalveningReleaseSchedule is IReleaseSchedule {\r\n    // Tokens per week to distribute for a halvening cycle\r\n    mapping(uint256 => uint256) public tokensPerPeriodForHalveningCycle;\r\n\r\n    uint256 public immutable halveningCyclePeriods;\r\n\r\n    /**\r\n     * Total number of periods.\r\n     */\r\n    uint256 public immutable override totalPeriods;\r\n\r\n    /**\r\n     * @param firstPeriodDistribution_ Number of tokens to distribute in the first period.\r\n     * @param halveningCyclePeriods_ Number of periods within each halvening cycle.\r\n     * @param totalHalvenings_ Total number of halvenings until there are no more tokens to release.\r\n     */\r\n    constructor(\r\n        uint256 firstPeriodDistribution_,\r\n        uint256 halveningCyclePeriods_,\r\n        uint256 totalHalvenings_\r\n    ) {\r\n        halveningCyclePeriods = halveningCyclePeriods_;\r\n        totalPeriods = totalHalvenings_ * halveningCyclePeriods_;\r\n\r\n        // compute period distribution schedule ahead of time.\r\n        tokensPerPeriodForHalveningCycle[0] = firstPeriodDistribution_;\r\n        for (uint256 i = 1; i < totalHalvenings_; i++) {\r\n            tokensPerPeriodForHalveningCycle[i] =\r\n                tokensPerPeriodForHalveningCycle[i - 1] /\r\n                2;\r\n        }\r\n    }\r\n\r\n    /**\r\n     * Gets the tokens scheduled to be distributed for a specific period.\r\n     */\r\n    function getTokensForPeriod(uint256 _periodIndex)\r\n        external\r\n        view\r\n        override\r\n        returns (uint256)\r\n    {\r\n        uint256 cycle = _periodIndex / halveningCyclePeriods;\r\n        return tokensPerPeriodForHalveningCycle[cycle];\r\n    }\r\n}\r\n",
  "sourcePath": "C:/Users/xavie/OneDrive/Desktop/TradeGen/Github/tradegen-farming/contracts/distribution/release/HalveningReleaseSchedule.sol",
  "compiler": {
    "name": "solc",
    "version": "0.8.3+commit.8d00100c.Emscripten.clang"
  },
  "schemaVersion": "3.4.1",
  "updatedAt": "2021-07-12T00:22:57.887Z",
  "devdoc": {
    "kind": "dev",
    "methods": {
      "constructor": {
        "params": {
          "firstPeriodDistribution_": "Number of tokens to distribute in the first period.",
          "halveningCyclePeriods_": "Number of periods within each halvening cycle.",
          "totalHalvenings_": "Total number of halvenings until there are no more tokens to release."
        }
      }
    },
    "version": 1
  },
  "userdoc": {
    "kind": "user",
    "methods": {
      "getTokensForPeriod(uint256)": {
        "notice": "Gets the tokens scheduled to be distributed for a specific period."
      },
      "totalPeriods()": {
        "notice": "Total number of periods."
      }
    },
    "notice": "A release schedule with a \"halvening\" event occuring every few periods. At some point, there are no more halvenings.",
    "version": 1
  }
}