{
  "contractName": "NonTransferrableToken",
  "abi": [
    {
      "inputs": [
        {
          "internalType": "string",
          "name": "name_",
          "type": "string"
        },
        {
          "internalType": "string",
          "name": "symbol_",
          "type": "string"
        },
        {
          "internalType": "uint8",
          "name": "decimals_",
          "type": "uint8"
        }
      ],
      "stateMutability": "nonpayable",
      "type": "constructor"
    },
    {
      "anonymous": false,
      "inputs": [
        {
          "indexed": true,
          "internalType": "address",
          "name": "owner",
          "type": "address"
        },
        {
          "indexed": false,
          "internalType": "uint256",
          "name": "previous",
          "type": "uint256"
        },
        {
          "indexed": false,
          "internalType": "uint256",
          "name": "next",
          "type": "uint256"
        },
        {
          "indexed": false,
          "internalType": "uint256",
          "name": "totalSupply",
          "type": "uint256"
        }
      ],
      "name": "BalanceUpdated",
      "type": "event"
    },
    {
      "inputs": [],
      "name": "name",
      "outputs": [
        {
          "internalType": "string",
          "name": "",
          "type": "string"
        }
      ],
      "stateMutability": "view",
      "type": "function"
    },
    {
      "inputs": [],
      "name": "symbol",
      "outputs": [
        {
          "internalType": "string",
          "name": "",
          "type": "string"
        }
      ],
      "stateMutability": "view",
      "type": "function"
    },
    {
      "inputs": [],
      "name": "decimals",
      "outputs": [
        {
          "internalType": "uint8",
          "name": "",
          "type": "uint8"
        }
      ],
      "stateMutability": "view",
      "type": "function"
    },
    {
      "inputs": [],
      "name": "totalSupply",
      "outputs": [
        {
          "internalType": "uint256",
          "name": "",
          "type": "uint256"
        }
      ],
      "stateMutability": "view",
      "type": "function"
    },
    {
      "inputs": [
        {
          "internalType": "address",
          "name": "_account",
          "type": "address"
        }
      ],
      "name": "balanceOf",
      "outputs": [
        {
          "internalType": "uint256",
          "name": "",
          "type": "uint256"
        }
      ],
      "stateMutability": "view",
      "type": "function"
    }
  ],
  "bytecode": "0x60a06040523480156200001157600080fd5b50604051620008e1380380620008e18339818101604052810190620000379190620001bc565b82600090805190602001906200004f92919062000083565b5081600190805190602001906200006892919062000083565b508060ff1660808160ff1660f81b81525050505050620003db565b8280546200009190620002e6565b90600052602060002090601f016020900481019282620000b5576000855562000101565b82601f10620000d057805160ff191683800117855562000101565b8280016001018555821562000101579182015b8281111562000100578251825591602001919060010190620000e3565b5b50905062000110919062000114565b5090565b5b808211156200012f57600081600090555060010162000115565b5090565b60006200014a62000144846200026d565b62000244565b9050828152602081018484840111156200016357600080fd5b62000170848285620002b0565b509392505050565b600082601f8301126200018a57600080fd5b81516200019c84826020860162000133565b91505092915050565b600081519050620001b681620003c1565b92915050565b600080600060608486031215620001d257600080fd5b600084015167ffffffffffffffff811115620001ed57600080fd5b620001fb8682870162000178565b935050602084015167ffffffffffffffff8111156200021957600080fd5b620002278682870162000178565b92505060406200023a86828701620001a5565b9150509250925092565b60006200025062000263565b90506200025e82826200031c565b919050565b6000604051905090565b600067ffffffffffffffff8211156200028b576200028a62000381565b5b6200029682620003b0565b9050602081019050919050565b600060ff82169050919050565b60005b83811015620002d0578082015181840152602081019050620002b3565b83811115620002e0576000848401525b50505050565b60006002820490506001821680620002ff57607f821691505b6020821081141562000316576200031562000352565b5b50919050565b6200032782620003b0565b810181811067ffffffffffffffff8211171562000349576200034862000381565b5b80604052505050565b7f4e487b7100000000000000000000000000000000000000000000000000000000600052602260045260246000fd5b7f4e487b7100000000000000000000000000000000000000000000000000000000600052604160045260246000fd5b6000601f19601f8301169050919050565b620003cc81620002a3565b8114620003d857600080fd5b50565b60805160f81c6104e7620003fa60003960006101a401526104e76000f3fe608060405234801561001057600080fd5b50600436106100575760003560e01c806306fdde031461005c57806318160ddd1461007a578063313ce5671461009857806370a08231146100b657806395d89b41146100e6575b600080fd5b610064610104565b6040516100719190610338565b60405180910390f35b610082610196565b60405161008f919061035a565b60405180910390f35b6100a06101a0565b6040516100ad9190610375565b60405180910390f35b6100d060048036038101906100cb91906102b8565b6101c8565b6040516100dd919061035a565b60405180910390f35b6100ee610211565b6040516100fb9190610338565b60405180910390f35b60606000805461011390610428565b80601f016020809104026020016040519081016040528092919081815260200182805461013f90610428565b801561018c5780601f106101615761010080835404028352916020019161018c565b820191906000526020600020905b81548152906001019060200180831161016f57829003601f168201915b5050505050905090565b6000600254905090565b60007f0000000000000000000000000000000000000000000000000000000000000000905090565b6000600360008373ffffffffffffffffffffffffffffffffffffffff1673ffffffffffffffffffffffffffffffffffffffff168152602001908152602001600020549050919050565b60606001805461022090610428565b80601f016020809104026020016040519081016040528092919081815260200182805461024c90610428565b80156102995780601f1061026e57610100808354040283529160200191610299565b820191906000526020600020905b81548152906001019060200180831161027c57829003601f168201915b5050505050905090565b6000813590506102b28161049a565b92915050565b6000602082840312156102ca57600080fd5b60006102d8848285016102a3565b91505092915050565b60006102ec82610390565b6102f6818561039b565b93506103068185602086016103f5565b61030f81610489565b840191505092915050565b610323816103de565b82525050565b610332816103e8565b82525050565b6000602082019050818103600083015261035281846102e1565b905092915050565b600060208201905061036f600083018461031a565b92915050565b600060208201905061038a6000830184610329565b92915050565b600081519050919050565b600082825260208201905092915050565b60006103b7826103be565b9050919050565b600073ffffffffffffffffffffffffffffffffffffffff82169050919050565b6000819050919050565b600060ff82169050919050565b60005b838110156104135780820151818401526020810190506103f8565b83811115610422576000848401525b50505050565b6000600282049050600182168061044057607f821691505b602082108114156104545761045361045a565b5b50919050565b7f4e487b7100000000000000000000000000000000000000000000000000000000600052602260045260246000fd5b6000601f19601f8301169050919050565b6104a3816103ac565b81146104ae57600080fd5b5056fea264697066735822122002afe736c89a64fed3f8c797fafdd388ac4fd8427df304cb1d20c97c8f8665b064736f6c63430008030033",
  "immutableReferences": {
    "15": [
      {
        "length": 32,
        "start": 420
      }
    ]
  },
  "source": "// SPDX-License-Identifier: MIT\r\n\r\npragma solidity ^0.8.3;\r\n\r\nimport \"../interfaces/INonTransferrableToken.sol\";\r\nimport \"../openzeppelin-solidity/contracts/SafeMath.sol\";\r\n\r\n/**\r\n * A token without transfer methods.\r\n * Based on openzeppelin-solidity-2.3.0/contracts/token/ERC20/ERC20Detailed.sol\r\n */\r\ncontract NonTransferrableToken is INonTransferrableToken {\r\n    using SafeMath for uint256;\r\n\r\n    string private _name;\r\n    string private _symbol;\r\n    uint8 private immutable _decimals;\r\n\r\n    uint256 private _totalSupply;\r\n    mapping(address => uint256) private _balances;\r\n\r\n    /**\r\n     * @dev Sets the values for `name`, `symbol`, and `decimals`. All three of\r\n     * these values are immutable: they can only be set once during\r\n     * construction.\r\n     */\r\n    constructor(\r\n        string memory name_,\r\n        string memory symbol_,\r\n        uint8 decimals_\r\n    ) {\r\n        _name = name_;\r\n        _symbol = symbol_;\r\n        _decimals = decimals_;\r\n    }\r\n\r\n    function name() public view override returns (string memory) {\r\n        return _name;\r\n    }\r\n\r\n    function symbol() public view override returns (string memory) {\r\n        return _symbol;\r\n    }\r\n\r\n    function decimals() public view override returns (uint8) {\r\n        return _decimals;\r\n    }\r\n\r\n    function totalSupply() public view virtual override returns (uint256) {\r\n        return _totalSupply;\r\n    }\r\n\r\n    function balanceOf(address _account)\r\n        public\r\n        view\r\n        virtual\r\n        override\r\n        returns (uint256)\r\n    {\r\n        return _balances[_account];\r\n    }\r\n\r\n    function _setBalance(address _address, uint256 _amount) internal {\r\n        _totalSupply = _totalSupply.add(_amount).sub(_balances[_address]);\r\n        emit BalanceUpdated(\r\n            _address,\r\n            _balances[_address],\r\n            _amount,\r\n            _totalSupply\r\n        );\r\n        _balances[_address] = _amount;\r\n    }\r\n}\r\n",
  "sourcePath": "C:\\Users\\xavie\\OneDrive\\Desktop\\TradeGen\\Github\\tradegen-farming\\contracts\\distribution\\NonTransferrableToken.sol",
  "compiler": {
    "name": "solc",
    "version": "0.8.3+commit.8d00100c.Emscripten.clang"
  },
  "schemaVersion": "3.4.1",
  "updatedAt": "2021-07-12T00:22:57.861Z",
  "devdoc": {
    "kind": "dev",
    "methods": {
      "constructor": {
        "details": "Sets the values for `name`, `symbol`, and `decimals`. All three of these values are immutable: they can only be set once during construction."
      }
    },
    "version": 1
  },
  "userdoc": {
    "kind": "user",
    "methods": {},
    "notice": "A token without transfer methods. Based on openzeppelin-solidity-2.3.0/contracts/token/ERC20/ERC20Detailed.sol",
    "version": 1
  }
}