{
  "contractName": "Operator",
  "abi": [
    {
      "inputs": [
        {
          "internalType": "address",
          "name": "owner_",
          "type": "address"
        },
        {
          "internalType": "address",
          "name": "operator_",
          "type": "address"
        }
      ],
      "stateMutability": "nonpayable",
      "type": "constructor"
    },
    {
      "anonymous": false,
      "inputs": [
        {
          "indexed": false,
          "internalType": "address",
          "name": "oldOperator",
          "type": "address"
        },
        {
          "indexed": false,
          "internalType": "address",
          "name": "newOperator",
          "type": "address"
        }
      ],
      "name": "OperatorTransferred",
      "type": "event"
    },
    {
      "anonymous": false,
      "inputs": [
        {
          "indexed": true,
          "internalType": "address",
          "name": "previousOwner",
          "type": "address"
        },
        {
          "indexed": true,
          "internalType": "address",
          "name": "newOwner",
          "type": "address"
        }
      ],
      "name": "OwnershipTransferred",
      "type": "event"
    },
    {
      "inputs": [],
      "name": "operator",
      "outputs": [
        {
          "internalType": "address",
          "name": "",
          "type": "address"
        }
      ],
      "stateMutability": "view",
      "type": "function"
    },
    {
      "inputs": [],
      "name": "owner",
      "outputs": [
        {
          "internalType": "address",
          "name": "",
          "type": "address"
        }
      ],
      "stateMutability": "view",
      "type": "function"
    },
    {
      "inputs": [],
      "name": "renounceOwnership",
      "outputs": [],
      "stateMutability": "nonpayable",
      "type": "function"
    },
    {
      "inputs": [
        {
          "internalType": "address",
          "name": "newOwner",
          "type": "address"
        }
      ],
      "name": "transferOwnership",
      "outputs": [],
      "stateMutability": "nonpayable",
      "type": "function"
    },
    {
      "inputs": [
        {
          "internalType": "address",
          "name": "_operator",
          "type": "address"
        }
      ],
      "name": "setOperator",
      "outputs": [],
      "stateMutability": "nonpayable",
      "type": "function"
    }
  ],
  "bytecode": "0x60806040523480156200001157600080fd5b5060405162000dde38038062000dde833981810160405281019062000037919062000470565b6000620000496200011160201b60201c565b9050806000806101000a81548173ffffffffffffffffffffffffffffffffffffffff021916908373ffffffffffffffffffffffffffffffffffffffff1602179055508073ffffffffffffffffffffffffffffffffffffffff16600073ffffffffffffffffffffffffffffffffffffffff167f8be0079c531659141344cd1fd0a4f28419497f9722a3daafe3b4186f6b6457e060405160405180910390a350620000f8816200011960201b60201c565b62000109826200027160201b60201c565b505062000658565b600033905090565b620001296200011160201b60201c565b73ffffffffffffffffffffffffffffffffffffffff166200014f6200043060201b60201c565b73ffffffffffffffffffffffffffffffffffffffff1614620001a8576040517f08c379a00000000000000000000000000000000000000000000000000000000081526004016200019f906200055f565b60405180910390fd5b6000600160009054906101000a900473ffffffffffffffffffffffffffffffffffffffff16905081600160006101000a81548173ffffffffffffffffffffffffffffffffffffffff021916908373ffffffffffffffffffffffffffffffffffffffff1602179055507f74da04524d50c64947f5dd5381ef1a4dca5cba8ed1d816243f9e48aa0b5617ed81600160009054906101000a900473ffffffffffffffffffffffffffffffffffffffff166040516200026592919062000510565b60405180910390a15050565b620002816200011160201b60201c565b73ffffffffffffffffffffffffffffffffffffffff16620002a76200043060201b60201c565b73ffffffffffffffffffffffffffffffffffffffff161462000300576040517f08c379a0000000000000000000000000000000000000000000000000000000008152600401620002f7906200055f565b60405180910390fd5b600073ffffffffffffffffffffffffffffffffffffffff168173ffffffffffffffffffffffffffffffffffffffff16141562000373576040517f08c379a00000000000000000000000000000000000000000000000000000000081526004016200036a906200053d565b60405180910390fd5b8073ffffffffffffffffffffffffffffffffffffffff1660008054906101000a900473ffffffffffffffffffffffffffffffffffffffff1673ffffffffffffffffffffffffffffffffffffffff167f8be0079c531659141344cd1fd0a4f28419497f9722a3daafe3b4186f6b6457e060405160405180910390a3806000806101000a81548173ffffffffffffffffffffffffffffffffffffffff021916908373ffffffffffffffffffffffffffffffffffffffff16021790555050565b60008060009054906101000a900473ffffffffffffffffffffffffffffffffffffffff16905090565b6000815190506200046a816200063e565b92915050565b600080604083850312156200048457600080fd5b6000620004948582860162000459565b9250506020620004a78582860162000459565b9150509250929050565b620004bc8162000592565b82525050565b6000620004d160268362000581565b9150620004de82620005c6565b604082019050919050565b6000620004f860208362000581565b9150620005058262000615565b602082019050919050565b6000604082019050620005276000830185620004b1565b620005366020830184620004b1565b9392505050565b600060208201905081810360008301526200055881620004c2565b9050919050565b600060208201905081810360008301526200057a81620004e9565b9050919050565b600082825260208201905092915050565b60006200059f82620005a6565b9050919050565b600073ffffffffffffffffffffffffffffffffffffffff82169050919050565b7f4f776e61626c653a206e6577206f776e657220697320746865207a65726f206160008201527f6464726573730000000000000000000000000000000000000000000000000000602082015250565b7f4f776e61626c653a2063616c6c6572206973206e6f7420746865206f776e6572600082015250565b620006498162000592565b81146200065557600080fd5b50565b61077680620006686000396000f3fe608060405234801561001057600080fd5b50600436106100575760003560e01c8063570ca7351461005c578063715018a61461007a5780638da5cb5b14610084578063b3ab15fb146100a2578063f2fde38b146100be575b600080fd5b6100646100da565b60405161007191906105ea565b60405180910390f35b610082610100565b005b61008c61023a565b60405161009991906105ea565b60405180910390f35b6100bc60048036038101906100b7919061056c565b610263565b005b6100d860048036038101906100d3919061056c565b6103a6565b005b600160009054906101000a900473ffffffffffffffffffffffffffffffffffffffff1681565b61010861054f565b73ffffffffffffffffffffffffffffffffffffffff1661012661023a565b73ffffffffffffffffffffffffffffffffffffffff161461017c576040517f08c379a00000000000000000000000000000000000000000000000000000000081526004016101739061064e565b60405180910390fd5b600073ffffffffffffffffffffffffffffffffffffffff1660008054906101000a900473ffffffffffffffffffffffffffffffffffffffff1673ffffffffffffffffffffffffffffffffffffffff167f8be0079c531659141344cd1fd0a4f28419497f9722a3daafe3b4186f6b6457e060405160405180910390a360008060006101000a81548173ffffffffffffffffffffffffffffffffffffffff021916908373ffffffffffffffffffffffffffffffffffffffff160217905550565b60008060009054906101000a900473ffffffffffffffffffffffffffffffffffffffff16905090565b61026b61054f565b73ffffffffffffffffffffffffffffffffffffffff1661028961023a565b73ffffffffffffffffffffffffffffffffffffffff16146102df576040517f08c379a00000000000000000000000000000000000000000000000000000000081526004016102d69061064e565b60405180910390fd5b6000600160009054906101000a900473ffffffffffffffffffffffffffffffffffffffff16905081600160006101000a81548173ffffffffffffffffffffffffffffffffffffffff021916908373ffffffffffffffffffffffffffffffffffffffff1602179055507f74da04524d50c64947f5dd5381ef1a4dca5cba8ed1d816243f9e48aa0b5617ed81600160009054906101000a900473ffffffffffffffffffffffffffffffffffffffff1660405161039a929190610605565b60405180910390a15050565b6103ae61054f565b73ffffffffffffffffffffffffffffffffffffffff166103cc61023a565b73ffffffffffffffffffffffffffffffffffffffff1614610422576040517f08c379a00000000000000000000000000000000000000000000000000000000081526004016104199061064e565b60405180910390fd5b600073ffffffffffffffffffffffffffffffffffffffff168173ffffffffffffffffffffffffffffffffffffffff161415610492576040517f08c379a00000000000000000000000000000000000000000000000000000000081526004016104899061062e565b60405180910390fd5b8073ffffffffffffffffffffffffffffffffffffffff1660008054906101000a900473ffffffffffffffffffffffffffffffffffffffff1673ffffffffffffffffffffffffffffffffffffffff167f8be0079c531659141344cd1fd0a4f28419497f9722a3daafe3b4186f6b6457e060405160405180910390a3806000806101000a81548173ffffffffffffffffffffffffffffffffffffffff021916908373ffffffffffffffffffffffffffffffffffffffff16021790555050565b600033905090565b60008135905061056681610729565b92915050565b60006020828403121561057e57600080fd5b600061058c84828501610557565b91505092915050565b61059e8161067f565b82525050565b60006105b160268361066e565b91506105bc826106b1565b604082019050919050565b60006105d460208361066e565b91506105df82610700565b602082019050919050565b60006020820190506105ff6000830184610595565b92915050565b600060408201905061061a6000830185610595565b6106276020830184610595565b9392505050565b60006020820190508181036000830152610647816105a4565b9050919050565b60006020820190508181036000830152610667816105c7565b9050919050565b600082825260208201905092915050565b600061068a82610691565b9050919050565b600073ffffffffffffffffffffffffffffffffffffffff82169050919050565b7f4f776e61626c653a206e6577206f776e657220697320746865207a65726f206160008201527f6464726573730000000000000000000000000000000000000000000000000000602082015250565b7f4f776e61626c653a2063616c6c6572206973206e6f7420746865206f776e6572600082015250565b6107328161067f565b811461073d57600080fd5b5056fea2646970667358221220bdfc95052a447fd4629e2b7dc88277b84b89c386510c59fc2bf207c79e6494ad64736f6c63430008030033",
  "immutableReferences": {},
  "source": "// SPDX-License-Identifier: MIT\r\n\r\npragma solidity ^0.8.3;\r\n\r\nimport \"../openzeppelin-solidity/contracts/Ownable.sol\";\r\n\r\n/**\r\n * Operator allows for a second address to \"operate\" on various functions.\r\n * This is useful for having emergency non-timelock functions be available.\r\n */\r\ncontract Operator is Ownable {\r\n    address public operator;\r\n\r\n    constructor(address owner_, address operator_) {\r\n        setOperator(operator_);\r\n        transferOwnership(owner_);\r\n    }\r\n\r\n    function setOperator(address _operator) public onlyOwner {\r\n        address oldOperator = operator;\r\n        operator = _operator;\r\n        emit OperatorTransferred(oldOperator, operator);\r\n    }\r\n\r\n    event OperatorTransferred(address oldOperator, address newOperator);\r\n\r\n    modifier onlyOperator {\r\n        require(msg.sender == operator, \"Operator: must be operator\");\r\n        _;\r\n    }\r\n}\r\n",
  "sourcePath": "C:\\Users\\xavie\\OneDrive\\Desktop\\TradeGen\\Github\\tradegen-farming\\contracts\\utils\\Operator.sol",
  "compiler": {
    "name": "solc",
    "version": "0.8.3+commit.8d00100c.Emscripten.clang"
  },
  "schemaVersion": "3.4.1",
  "updatedAt": "2021-07-12T00:22:57.947Z",
  "devdoc": {
    "kind": "dev",
    "methods": {
      "owner()": {
        "details": "Returns the address of the current owner."
      },
      "renounceOwnership()": {
        "details": "Leaves the contract without owner. It will not be possible to call `onlyOwner` functions anymore. Can only be called by the current owner. NOTE: Renouncing ownership will leave the contract without an owner, thereby removing any functionality that is only available to the owner."
      },
      "transferOwnership(address)": {
        "details": "Transfers ownership of the contract to a new account (`newOwner`). Can only be called by the current owner."
      }
    },
    "version": 1
  },
  "userdoc": {
    "kind": "user",
    "methods": {},
    "notice": "Operator allows for a second address to \"operate\" on various functions. This is useful for having emergency non-timelock functions be available.",
    "version": 1
  }
}