{
  "contractName": "PoolManager",
  "abi": [
    {
      "inputs": [
        {
          "internalType": "address",
          "name": "owner_",
          "type": "address"
        },
        {
          "internalType": "address",
          "name": "operator_",
          "type": "address"
        },
        {
          "internalType": "address",
          "name": "rewardsToken_",
          "type": "address"
        },
        {
          "internalType": "address",
          "name": "miningAllocator_",
          "type": "address"
        },
        {
          "internalType": "address",
          "name": "releaseSchedule_",
          "type": "address"
        }
      ],
      "stateMutability": "nonpayable",
      "type": "constructor"
    },
    {
      "anonymous": false,
      "inputs": [
        {
          "indexed": false,
          "internalType": "address",
          "name": "oldOperator",
          "type": "address"
        },
        {
          "indexed": false,
          "internalType": "address",
          "name": "newOperator",
          "type": "address"
        }
      ],
      "name": "OperatorTransferred",
      "type": "event"
    },
    {
      "anonymous": false,
      "inputs": [
        {
          "indexed": true,
          "internalType": "address",
          "name": "previousOwner",
          "type": "address"
        },
        {
          "indexed": true,
          "internalType": "address",
          "name": "newOwner",
          "type": "address"
        }
      ],
      "name": "OwnershipTransferred",
      "type": "event"
    },
    {
      "anonymous": false,
      "inputs": [
        {
          "indexed": false,
          "internalType": "uint256",
          "name": "index",
          "type": "uint256"
        },
        {
          "indexed": false,
          "internalType": "uint256",
          "name": "amount",
          "type": "uint256"
        }
      ],
      "name": "PeriodInitialized",
      "type": "event"
    },
    {
      "anonymous": false,
      "inputs": [
        {
          "indexed": true,
          "internalType": "address",
          "name": "stakingToken",
          "type": "address"
        },
        {
          "indexed": true,
          "internalType": "uint256",
          "name": "index",
          "type": "uint256"
        },
        {
          "indexed": false,
          "internalType": "uint256",
          "name": "weight",
          "type": "uint256"
        },
        {
          "indexed": true,
          "internalType": "bool",
          "name": "isNewPool",
          "type": "bool"
        }
      ],
      "name": "UpdatePoolWeight",
      "type": "event"
    },
    {
      "inputs": [],
      "name": "currentPeriod",
      "outputs": [
        {
          "internalType": "uint256",
          "name": "index",
          "type": "uint256"
        },
        {
          "internalType": "uint256",
          "name": "amount",
          "type": "uint256"
        },
        {
          "internalType": "bool",
          "name": "isInitializing",
          "type": "bool"
        },
        {
          "internalType": "uint256",
          "name": "totalWeightAllocated",
          "type": "uint256"
        }
      ],
      "stateMutability": "view",
      "type": "function"
    },
    {
      "inputs": [],
      "name": "miningAllocator",
      "outputs": [
        {
          "internalType": "contract ITokenAllocator",
          "name": "",
          "type": "address"
        }
      ],
      "stateMutability": "view",
      "type": "function"
    },
    {
      "inputs": [],
      "name": "nextPeriod",
      "outputs": [
        {
          "internalType": "uint256",
          "name": "",
          "type": "uint256"
        }
      ],
      "stateMutability": "view",
      "type": "function"
    },
    {
      "inputs": [],
      "name": "operator",
      "outputs": [
        {
          "internalType": "address",
          "name": "",
          "type": "address"
        }
      ],
      "stateMutability": "view",
      "type": "function"
    },
    {
      "inputs": [],
      "name": "owner",
      "outputs": [
        {
          "internalType": "address",
          "name": "",
          "type": "address"
        }
      ],
      "stateMutability": "view",
      "type": "function"
    },
    {
      "inputs": [
        {
          "internalType": "address",
          "name": "",
          "type": "address"
        }
      ],
      "name": "pools",
      "outputs": [
        {
          "internalType": "uint256",
          "name": "index",
          "type": "uint256"
        },
        {
          "internalType": "address",
          "name": "stakingToken",
          "type": "address"
        },
        {
          "internalType": "address",
          "name": "poolAddress",
          "type": "address"
        },
        {
          "internalType": "uint256",
          "name": "weight",
          "type": "uint256"
        },
        {
          "internalType": "uint256",
          "name": "nextPeriod",
          "type": "uint256"
        }
      ],
      "stateMutability": "view",
      "type": "function"
    },
    {
      "inputs": [
        {
          "internalType": "uint256",
          "name": "",
          "type": "uint256"
        }
      ],
      "name": "poolsByIndex",
      "outputs": [
        {
          "internalType": "address",
          "name": "",
          "type": "address"
        }
      ],
      "stateMutability": "view",
      "type": "function"
    },
    {
      "inputs": [],
      "name": "poolsCount",
      "outputs": [
        {
          "internalType": "uint256",
          "name": "",
          "type": "uint256"
        }
      ],
      "stateMutability": "view",
      "type": "function"
    },
    {
      "inputs": [],
      "name": "releaseSchedule",
      "outputs": [
        {
          "internalType": "contract IReleaseSchedule",
          "name": "",
          "type": "address"
        }
      ],
      "stateMutability": "view",
      "type": "function"
    },
    {
      "inputs": [],
      "name": "renounceOwnership",
      "outputs": [],
      "stateMutability": "nonpayable",
      "type": "function"
    },
    {
      "inputs": [],
      "name": "rewardsToken",
      "outputs": [
        {
          "internalType": "contract IERC20",
          "name": "",
          "type": "address"
        }
      ],
      "stateMutability": "view",
      "type": "function"
    },
    {
      "inputs": [
        {
          "internalType": "address",
          "name": "_operator",
          "type": "address"
        }
      ],
      "name": "setOperator",
      "outputs": [],
      "stateMutability": "nonpayable",
      "type": "function"
    },
    {
      "inputs": [],
      "name": "totalWeight",
      "outputs": [
        {
          "internalType": "uint256",
          "name": "",
          "type": "uint256"
        }
      ],
      "stateMutability": "view",
      "type": "function"
    },
    {
      "inputs": [
        {
          "internalType": "address",
          "name": "newOwner",
          "type": "address"
        }
      ],
      "name": "transferOwnership",
      "outputs": [],
      "stateMutability": "nonpayable",
      "type": "function"
    },
    {
      "inputs": [
        {
          "internalType": "address",
          "name": "_stakingToken",
          "type": "address"
        },
        {
          "internalType": "uint256",
          "name": "_weight",
          "type": "uint256"
        }
      ],
      "name": "setWeight",
      "outputs": [],
      "stateMutability": "nonpayable",
      "type": "function"
    },
    {
      "inputs": [
        {
          "internalType": "address[]",
          "name": "_stakingTokens",
          "type": "address[]"
        },
        {
          "internalType": "uint256[]",
          "name": "_weights",
          "type": "uint256[]"
        }
      ],
      "name": "batchSetWeight",
      "outputs": [],
      "stateMutability": "nonpayable",
      "type": "function"
    },
    {
      "inputs": [],
      "name": "beginInitializePeriod",
      "outputs": [],
      "stateMutability": "nonpayable",
      "type": "function"
    },
    {
      "inputs": [],
      "name": "commitInitializePeriod",
      "outputs": [],
      "stateMutability": "nonpayable",
      "type": "function"
    },
    {
      "inputs": [
        {
          "internalType": "uint256",
          "name": "_period",
          "type": "uint256"
        }
      ],
      "name": "computeAmountForPeriod",
      "outputs": [
        {
          "internalType": "uint256",
          "name": "",
          "type": "uint256"
        }
      ],
      "stateMutability": "view",
      "type": "function"
    },
    {
      "inputs": [
        {
          "internalType": "address",
          "name": "_stakingToken",
          "type": "address"
        },
        {
          "internalType": "uint256",
          "name": "_period",
          "type": "uint256"
        }
      ],
      "name": "computeAmountForPool",
      "outputs": [
        {
          "internalType": "uint256",
          "name": "",
          "type": "uint256"
        }
      ],
      "stateMutability": "view",
      "type": "function"
    },
    {
      "inputs": [
        {
          "internalType": "address",
          "name": "_stakingToken",
          "type": "address"
        },
        {
          "internalType": "uint256",
          "name": "_amount",
          "type": "uint256"
        }
      ],
      "name": "computePoolShare",
      "outputs": [
        {
          "internalType": "uint256",
          "name": "",
          "type": "uint256"
        }
      ],
      "stateMutability": "view",
      "type": "function"
    },
    {
      "inputs": [
        {
          "internalType": "address",
          "name": "_stakingToken",
          "type": "address"
        }
      ],
      "name": "refreshPool",
      "outputs": [],
      "stateMutability": "nonpayable",
      "type": "function"
    },
    {
      "inputs": [
        {
          "internalType": "address[]",
          "name": "_stakingTokens",
          "type": "address[]"
        }
      ],
      "name": "initializePeriod",
      "outputs": [],
      "stateMutability": "nonpayable",
      "type": "function"
    },
    {
      "inputs": [
        {
          "internalType": "address[]",
          "name": "_stakingTokens",
          "type": "address[]"
        }
      ],
      "name": "batchRefreshPools",
      "outputs": [],
      "stateMutability": "nonpayable",
      "type": "function"
    },
    {
      "inputs": [
        {
          "internalType": "address",
          "name": "_pool",
          "type": "address"
        },
        {
          "internalType": "address",
          "name": "_tokenAddress",
          "type": "address"
        },
        {
          "internalType": "uint256",
          "name": "_tokenAmount",
          "type": "uint256"
        }
      ],
      "name": "recoverERC20",
      "outputs": [],
      "stateMutability": "nonpayable",
      "type": "function"
    }
  ],
  "bytecode": "0x60e06040523480156200001157600080fd5b5060405162006d7338038062006d73833981810160405281019062000037919062000524565b848460006200004b620001c560201b60201c565b9050806000806101000a81548173ffffffffffffffffffffffffffffffffffffffff021916908373ffffffffffffffffffffffffffffffffffffffff1602179055508073ffffffffffffffffffffffffffffffffffffffff16600073ffffffffffffffffffffffffffffffffffffffff167f8be0079c531659141344cd1fd0a4f28419497f9722a3daafe3b4186f6b6457e060405160405180910390a350620000fa81620001cd60201b60201c565b6200010b826200032560201b60201c565b505060016002819055508273ffffffffffffffffffffffffffffffffffffffff1660808173ffffffffffffffffffffffffffffffffffffffff1660601b815250508173ffffffffffffffffffffffffffffffffffffffff1660a08173ffffffffffffffffffffffffffffffffffffffff1660601b815250508073ffffffffffffffffffffffffffffffffffffffff1660c08173ffffffffffffffffffffffffffffffffffffffff1660601b8152505050505050506200074d565b600033905090565b620001dd620001c560201b60201c565b73ffffffffffffffffffffffffffffffffffffffff1662000203620004e460201b60201c565b73ffffffffffffffffffffffffffffffffffffffff16146200025c576040517f08c379a0000000000000000000000000000000000000000000000000000000008152600401620002539062000654565b60405180910390fd5b6000600160009054906101000a900473ffffffffffffffffffffffffffffffffffffffff16905081600160006101000a81548173ffffffffffffffffffffffffffffffffffffffff021916908373ffffffffffffffffffffffffffffffffffffffff1602179055507f74da04524d50c64947f5dd5381ef1a4dca5cba8ed1d816243f9e48aa0b5617ed81600160009054906101000a900473ffffffffffffffffffffffffffffffffffffffff166040516200031992919062000605565b60405180910390a15050565b62000335620001c560201b60201c565b73ffffffffffffffffffffffffffffffffffffffff166200035b620004e460201b60201c565b73ffffffffffffffffffffffffffffffffffffffff1614620003b4576040517f08c379a0000000000000000000000000000000000000000000000000000000008152600401620003ab9062000654565b60405180910390fd5b600073ffffffffffffffffffffffffffffffffffffffff168173ffffffffffffffffffffffffffffffffffffffff16141562000427576040517f08c379a00000000000000000000000000000000000000000000000000000000081526004016200041e9062000632565b60405180910390fd5b8073ffffffffffffffffffffffffffffffffffffffff1660008054906101000a900473ffffffffffffffffffffffffffffffffffffffff1673ffffffffffffffffffffffffffffffffffffffff167f8be0079c531659141344cd1fd0a4f28419497f9722a3daafe3b4186f6b6457e060405160405180910390a3806000806101000a81548173ffffffffffffffffffffffffffffffffffffffff021916908373ffffffffffffffffffffffffffffffffffffffff16021790555050565b60008060009054906101000a900473ffffffffffffffffffffffffffffffffffffffff16905090565b6000815190506200051e8162000733565b92915050565b600080600080600060a086880312156200053d57600080fd5b60006200054d888289016200050d565b955050602062000560888289016200050d565b945050604062000573888289016200050d565b935050606062000586888289016200050d565b925050608062000599888289016200050d565b9150509295509295909350565b620005b18162000687565b82525050565b6000620005c660268362000676565b9150620005d382620006bb565b604082019050919050565b6000620005ed60208362000676565b9150620005fa826200070a565b602082019050919050565b60006040820190506200061c6000830185620005a6565b6200062b6020830184620005a6565b9392505050565b600060208201905081810360008301526200064d81620005b7565b9050919050565b600060208201905081810360008301526200066f81620005de565b9050919050565b600082825260208201905092915050565b600062000694826200069b565b9050919050565b600073ffffffffffffffffffffffffffffffffffffffff82169050919050565b7f4f776e61626c653a206e6577206f776e657220697320746865207a65726f206160008201527f6464726573730000000000000000000000000000000000000000000000000000602082015250565b7f4f776e61626c653a2063616c6c6572206973206e6f7420746865206f776e6572600082015250565b6200073e8162000687565b81146200074a57600080fd5b50565b60805160601c60a05160601c60c05160601c6165b5620007be600039600081816115750152611fad015260008181610b4901528181610fee0152818161142001526114c6015260008181610682015281816110a40152818161193b01528181611a3d0152611b2401526165b56000f3fe60806040523480156200001157600080fd5b5060043610620001965760003560e01c80638c788de011620000f3578063bb6ac0dd11620000a5578063f2fde38b116200007b578063f2fde38b1462000498578063f361693b14620004b8578063f605e95d14620004c4578063fc9f3ef014620004e45762000196565b8063bb6ac0dd1462000434578063d1af0c7d1462000454578063ec607f7d14620004765762000196565b80638c788de0146200033e5780638da5cb5b146200036057806396c82e571462000382578063a4063dbc14620003a4578063b3ab15fb14620003de578063b3f2bb1514620003fe5762000196565b8063521ee79f116200014d578063521ee79f146200028e5780635491ce2514620002ae578063570ca73514620002e4578063715018a614620003065780637a99287f1462000312578063890c8abf14620003325762000196565b806305ba0cf1146200019b5780630604061814620001bb5780631171bda914620001e057806344f8e21114620002005780634a4ca36914620002225780634f6444af1462000258575b600080fd5b620001b96004803603810190620001b3919062002573565b62000506565b005b620001c5620009e6565b604051620001d7949392919062002ef8565b60405180910390f35b620001fe6004803603810190620001f891906200251d565b62000a11565b005b6200020a62000b47565b60405162000219919062002bce565b60405180910390f35b6200024060048036038101906200023a9190620026ea565b62000b6b565b6040516200024f919062002ad0565b60405180910390f35b62000276600480360381019062000270919062002573565b62000b9e565b60405162000285919062002e51565b60405180910390f35b620002ac6004803603810190620002a6919062002679565b62000c15565b005b620002cc6004803603810190620002c6919062002573565b62000cd0565b604051620002db919062002e51565b60405180910390f35b620002ee62000cf0565b604051620002fd919062002ad0565b60405180910390f35b6200031062000d16565b005b6200033060048036038101906200032a9190620025b4565b62000e57565b005b6200033c62000ebb565b005b6200034862001221565b60405162000357919062002e51565b60405180910390f35b6200036a62001227565b60405162000379919062002ad0565b60405180910390f35b6200038c62001250565b6040516200039b919062002e51565b60405180910390f35b620003c26004803603810190620003bc9190620024f1565b62001256565b604051620003d595949392919062002e6e565b60405180910390f35b620003fc6004803603810190620003f69190620024f1565b620012cc565b005b6200041c6004803603810190620004169190620026ea565b62001418565b6040516200042b919062002e51565b60405180910390f35b6200045260048036038101906200044c9190620024f1565b62001647565b005b6200045e62001b22565b6040516200046d919062002b94565b60405180910390f35b6200048062001b46565b6040516200048f919062002e51565b60405180910390f35b620004b66004803603810190620004b09190620024f1565b62001b4c565b005b620004c262001cff565b005b620004e26004803603810190620004dc9190620025fd565b62001e98565b005b620004ee62001fab565b604051620004fd919062002bb1565b60405180910390f35b6200051062001fcf565b73ffffffffffffffffffffffffffffffffffffffff166200053062001227565b73ffffffffffffffffffffffffffffffffffffffff161462000589576040517f08c379a0000000000000000000000000000000000000000000000000000000008152600401620005809062002d1f565b60405180910390fd5b600560020160009054906101000a900460ff1615620005df576040517f08c379a0000000000000000000000000000000000000000000000000000000008152600401620005d69062002c97565b60405180910390fd5b6000600360008473ffffffffffffffffffffffffffffffffffffffff1673ffffffffffffffffffffffffffffffffffffffff1681526020019081526020016000209050600073ffffffffffffffffffffffffffffffffffffffff168160010160009054906101000a900473ffffffffffffffffffffffffffffffffffffffff1673ffffffffffffffffffffffffffffffffffffffff1614156200094957600030307f000000000000000000000000000000000000000000000000000000000000000086604051620006b0906200234b565b620006bf949392919062002b1a565b604051809103906000f080158015620006dc573d6000803e3d6000fd5b5090506040518060a00160405280600a5481526020018573ffffffffffffffffffffffffffffffffffffffff1681526020018273ffffffffffffffffffffffffffffffffffffffff168152602001848152602001600b54815250600360008673ffffffffffffffffffffffffffffffffffffffff1673ffffffffffffffffffffffffffffffffffffffff1681526020019081526020016000206000820151816000015560208201518160010160006101000a81548173ffffffffffffffffffffffffffffffffffffffff021916908373ffffffffffffffffffffffffffffffffffffffff16021790555060408201518160020160006101000a81548173ffffffffffffffffffffffffffffffffffffffff021916908373ffffffffffffffffffffffffffffffffffffffff16021790555060608201518160030155608082015181600401559050508360096000600a60008154809291906200083e906200322e565b91905055815260200190815260200160002060006101000a81548173ffffffffffffffffffffffffffffffffffffffff021916908373ffffffffffffffffffffffffffffffffffffffff160217905550620008a58360045462001fd790919063ffffffff16565b60048190555060011515600360008673ffffffffffffffffffffffffffffffffffffffff1673ffffffffffffffffffffffffffffffffffffffff168152602001908152602001600020600001548573ffffffffffffffffffffffffffffffffffffffff167fd4d7a8994242ad82dacbceae2d789bbd71db07538eda1eaf621e3d3ec12f66d7866040516200093a919062002e51565b60405180910390a450620009e1565b620009788262000969836003015460045462001fef90919063ffffffff16565b62001fd790919063ffffffff16565b6004819055508181600301819055506000151581600001548473ffffffffffffffffffffffffffffffffffffffff167fd4d7a8994242ad82dacbceae2d789bbd71db07538eda1eaf621e3d3ec12f66d785604051620009d8919062002e51565b60405180910390a45b505050565b60058060000154908060010154908060020160009054906101000a900460ff16908060030154905084565b600160009054906101000a900473ffffffffffffffffffffffffffffffffffffffff1673ffffffffffffffffffffffffffffffffffffffff163373ffffffffffffffffffffffffffffffffffffffff161462000aa4576040517f08c379a000000000000000000000000000000000000000000000000000000000815260040162000a9b9062002e0d565b60405180910390fd5b8273ffffffffffffffffffffffffffffffffffffffff16638980f11f83836040518363ffffffff1660e01b815260040162000ae192919062002b67565b600060405180830381600087803b15801562000afc57600080fd5b505af115801562000b11573d6000803e3d6000fd5b5050505062000b4233828473ffffffffffffffffffffffffffffffffffffffff16620020079092919063ffffffff16565b505050565b7f000000000000000000000000000000000000000000000000000000000000000081565b60096020528060005260406000206000915054906101000a900473ffffffffffffffffffffffffffffffffffffffff1681565b600062000c0d60045462000bfe600360008773ffffffffffffffffffffffffffffffffffffffff1673ffffffffffffffffffffffffffffffffffffffff16815260200190815260200160002060030154856200209190919063ffffffff16565b620020a990919063ffffffff16565b905092915050565b60148151111562000c5d576040517f08c379a000000000000000000000000000000000000000000000000000000000815260040162000c549062002cb9565b60405180910390fd5b60005b815181101562000ccc5762000cb682828151811062000ca8577f4e487b7100000000000000000000000000000000000000000000000000000000600052603260045260246000fd5b602002602001015162001647565b808062000cc3906200322e565b91505062000c60565b5050565b600062000ce88362000ce28462001418565b62000b9e565b905092915050565b600160009054906101000a900473ffffffffffffffffffffffffffffffffffffffff1681565b62000d2062001fcf565b73ffffffffffffffffffffffffffffffffffffffff1662000d4062001227565b73ffffffffffffffffffffffffffffffffffffffff161462000d99576040517f08c379a000000000000000000000000000000000000000000000000000000000815260040162000d909062002d1f565b60405180910390fd5b600073ffffffffffffffffffffffffffffffffffffffff1660008054906101000a900473ffffffffffffffffffffffffffffffffffffffff1673ffffffffffffffffffffffffffffffffffffffff167f8be0079c531659141344cd1fd0a4f28419497f9722a3daafe3b4186f6b6457e060405160405180910390a360008060006101000a81548173ffffffffffffffffffffffffffffffffffffffff021916908373ffffffffffffffffffffffffffffffffffffffff160217905550565b62000e6162000ebb565b62000ead828280806020026020016040519081016040528093929190818152602001838360200280828437600081840152601f19601f8201169050808301925050505050505062000c15565b62000eb762001cff565b5050565b600160009054906101000a900473ffffffffffffffffffffffffffffffffffffffff1673ffffffffffffffffffffffffffffffffffffffff163373ffffffffffffffffffffffffffffffffffffffff161462000f4e576040517f08c379a000000000000000000000000000000000000000000000000000000000815260040162000f459062002e0d565b60405180910390fd5b600560020160009054906101000a900460ff161562000fa4576040517f08c379a000000000000000000000000000000000000000000000000000000000815260040162000f9b9062002c97565b60405180910390fd5b60006004541162000fec576040517f08c379a000000000000000000000000000000000000000000000000000000000815260040162000fe39062002d85565b60405180910390fd5b7f000000000000000000000000000000000000000000000000000000000000000073ffffffffffffffffffffffffffffffffffffffff16633d18b9126040518163ffffffff1660e01b8152600401602060405180830381600087803b1580156200105557600080fd5b505af11580156200106a573d6000803e3d6000fd5b505050506040513d601f19601f8201168201806040525081019062001090919062002716565b506000620010a0600b5462001418565b90507f000000000000000000000000000000000000000000000000000000000000000073ffffffffffffffffffffffffffffffffffffffff166370a08231306040518263ffffffff1660e01b8152600401620010fd919062002ad0565b60206040518083038186803b1580156200111657600080fd5b505afa1580156200112b573d6000803e3d6000fd5b505050506040513d601f19601f8201168201806040525081019062001151919062002716565b81111562001196576040517f08c379a00000000000000000000000000000000000000000000000000000000081526004016200118d9062002dc9565b60405180910390fd5b6040518060800160405280600b54815260200182815260200160011515815260200160008152506005600082015181600001556020820151816001015560408201518160020160006101000a81548160ff02191690831515021790555060608201518160030155905050620012186001600b5462001fd790919063ffffffff16565b600b8190555050565b600a5481565b60008060009054906101000a900473ffffffffffffffffffffffffffffffffffffffff16905090565b60045481565b60036020528060005260406000206000915090508060000154908060010160009054906101000a900473ffffffffffffffffffffffffffffffffffffffff16908060020160009054906101000a900473ffffffffffffffffffffffffffffffffffffffff16908060030154908060040154905085565b620012d662001fcf565b73ffffffffffffffffffffffffffffffffffffffff16620012f662001227565b73ffffffffffffffffffffffffffffffffffffffff16146200134f576040517f08c379a0000000000000000000000000000000000000000000000000000000008152600401620013469062002d1f565b60405180910390fd5b6000600160009054906101000a900473ffffffffffffffffffffffffffffffffffffffff16905081600160006101000a81548173ffffffffffffffffffffffffffffffffffffffff021916908373ffffffffffffffffffffffffffffffffffffffff1602179055507f74da04524d50c64947f5dd5381ef1a4dca5cba8ed1d816243f9e48aa0b5617ed81600160009054906101000a900473ffffffffffffffffffffffffffffffffffffffff166040516200140c92919062002aed565b60405180910390a15050565b6000620016407f000000000000000000000000000000000000000000000000000000000000000073ffffffffffffffffffffffffffffffffffffffff166318160ddd6040518163ffffffff1660e01b815260040160206040518083038186803b1580156200148557600080fd5b505afa1580156200149a573d6000803e3d6000fd5b505050506040513d601f19601f82011682018060405250810190620014c0919062002716565b620016317f000000000000000000000000000000000000000000000000000000000000000073ffffffffffffffffffffffffffffffffffffffff166370a08231306040518263ffffffff1660e01b81526004016200151f919062002ad0565b60206040518083038186803b1580156200153857600080fd5b505afa1580156200154d573d6000803e3d6000fd5b505050506040513d601f19601f8201168201806040525081019062001573919062002716565b7f000000000000000000000000000000000000000000000000000000000000000073ffffffffffffffffffffffffffffffffffffffff16636fc313e7876040518263ffffffff1660e01b8152600401620015ce919062002e51565b60206040518083038186803b158015620015e757600080fd5b505afa158015620015fc573d6000803e3d6000fd5b505050506040513d601f19601f8201168201806040525081019062001622919062002716565b6200209190919063ffffffff16565b620020a990919063ffffffff16565b9050919050565b600160009054906101000a900473ffffffffffffffffffffffffffffffffffffffff1673ffffffffffffffffffffffffffffffffffffffff163373ffffffffffffffffffffffffffffffffffffffff1614620016da576040517f08c379a0000000000000000000000000000000000000000000000000000000008152600401620016d19062002e0d565b60405180910390fd5b600560020160009054906101000a900460ff166200172f576040517f08c379a0000000000000000000000000000000000000000000000000000000008152600401620017269062002cfd565b60405180910390fd5b60028054141562001777576040517f08c379a00000000000000000000000000000000000000000000000000000000081526004016200176e9062002e2f565b60405180910390fd5b600280819055506000600360008373ffffffffffffffffffffffffffffffffffffffff1673ffffffffffffffffffffffffffffffffffffffff1681526020019081526020016000209050600073ffffffffffffffffffffffffffffffffffffffff168160010160009054906101000a900473ffffffffffffffffffffffffffffffffffffffff1673ffffffffffffffffffffffffffffffffffffffff16141562001858576040517f08c379a00000000000000000000000000000000000000000000000000000000081526004016200184f9062002c75565b60405180910390fd5b60056000015481600401541115620018a7576040517f08c379a00000000000000000000000000000000000000000000000000000000081526004016200189e9062002d41565b60405180910390fd5b600081600301541415620018f2576040517f08c379a0000000000000000000000000000000000000000000000000000000008152600401620018e99062002c0f565b60405180910390fd5b600b5481600401819055506200191b816003015460056003015462001fd790919063ffffffff16565b6005600301819055506000620019378360056001015462000b9e565b90507f000000000000000000000000000000000000000000000000000000000000000073ffffffffffffffffffffffffffffffffffffffff1663095ea7b38360020160009054906101000a900473ffffffffffffffffffffffffffffffffffffffff16836040518363ffffffff1660e01b8152600401620019ba92919062002b67565b602060405180830381600087803b158015620019d557600080fd5b505af1158015620019ea573d6000803e3d6000fd5b505050506040513d601f19601f8201168201806040525081019062001a109190620026be565b5062001a828260020160009054906101000a900473ffffffffffffffffffffffffffffffffffffffff16827f000000000000000000000000000000000000000000000000000000000000000073ffffffffffffffffffffffffffffffffffffffff16620020079092919063ffffffff16565b8160020160009054906101000a900473ffffffffffffffffffffffffffffffffffffffff1673ffffffffffffffffffffffffffffffffffffffff16633c6b16ab826040518263ffffffff1660e01b815260040162001ae1919062002e51565b600060405180830381600087803b15801562001afc57600080fd5b505af115801562001b11573d6000803e3d6000fd5b505050505050600160028190555050565b7f000000000000000000000000000000000000000000000000000000000000000081565b600b5481565b62001b5662001fcf565b73ffffffffffffffffffffffffffffffffffffffff1662001b7662001227565b73ffffffffffffffffffffffffffffffffffffffff161462001bcf576040517f08c379a000000000000000000000000000000000000000000000000000000000815260040162001bc69062002d1f565b60405180910390fd5b600073ffffffffffffffffffffffffffffffffffffffff168173ffffffffffffffffffffffffffffffffffffffff16141562001c42576040517f08c379a000000000000000000000000000000000000000000000000000000000815260040162001c399062002c53565b60405180910390fd5b8073ffffffffffffffffffffffffffffffffffffffff1660008054906101000a900473ffffffffffffffffffffffffffffffffffffffff1673ffffffffffffffffffffffffffffffffffffffff167f8be0079c531659141344cd1fd0a4f28419497f9722a3daafe3b4186f6b6457e060405160405180910390a3806000806101000a81548173ffffffffffffffffffffffffffffffffffffffff021916908373ffffffffffffffffffffffffffffffffffffffff16021790555050565b600160009054906101000a900473ffffffffffffffffffffffffffffffffffffffff1673ffffffffffffffffffffffffffffffffffffffff163373ffffffffffffffffffffffffffffffffffffffff161462001d92576040517f08c379a000000000000000000000000000000000000000000000000000000000815260040162001d899062002e0d565b60405180910390fd5b600560020160009054906101000a900460ff1662001de7576040517f08c379a000000000000000000000000000000000000000000000000000000000815260040162001dde9062002cfd565b60405180910390fd5b6004546005600301541462001e33576040517f08c379a000000000000000000000000000000000000000000000000000000000815260040162001e2a9062002c31565b60405180910390fd5b6000600560020160006101000a81548160ff0219169083151502179055507f6ede70134e2e62c53913d3f9181057179a82ed8baede7a335580c27f3a17a7d460056000015460056001015460405162001e8e92919062002ecb565b60405180910390a1565b81819050848490501462001ee3576040517f08c379a000000000000000000000000000000000000000000000000000000000815260040162001eda9062002deb565b60405180910390fd5b60005b8484905081101562001fa45762001f8e85858381811062001f30577f4e487b7100000000000000000000000000000000000000000000000000000000600052603260045260246000fd5b905060200201602081019062001f479190620024f1565b84848481811062001f81577f4e487b7100000000000000000000000000000000000000000000000000000000600052603260045260246000fd5b9050602002013562000506565b808062001f9b906200322e565b91505062001ee6565b5050505050565b7f000000000000000000000000000000000000000000000000000000000000000081565b600033905090565b6000818362001fe7919062002fcf565b905092915050565b6000818362001fff9190620030c5565b905092915050565b6200208c8363a9059cbb60e01b84846040516024016200202992919062002b67565b604051602081830303815290604052907bffffffffffffffffffffffffffffffffffffffffffffffffffffffff19166020820180517bffffffffffffffffffffffffffffffffffffffffffffffffffffffff8381831617835250505050620020c1565b505050565b60008183620020a1919062003064565b905092915050565b60008183620020b991906200302c565b905092915050565b600062002125826040518060400160405280602081526020017f5361666545524332303a206c6f772d6c6576656c2063616c6c206661696c65648152508573ffffffffffffffffffffffffffffffffffffffff16620021909092919063ffffffff16565b90506000815111156200218b5780806020019051810190620021489190620026be565b6200218a576040517f08c379a0000000000000000000000000000000000000000000000000000000008152600401620021819062002da7565b60405180910390fd5b5b505050565b6060620021a18484600085620021aa565b90509392505050565b606082471015620021f2576040517f08c379a0000000000000000000000000000000000000000000000000000000008152600401620021e99062002cdb565b60405180910390fd5b620021fd85620022cc565b6200223f576040517f08c379a0000000000000000000000000000000000000000000000000000000008152600401620022369062002d63565b60405180910390fd5b6000808673ffffffffffffffffffffffffffffffffffffffff1685876040516200226a919062002ab7565b60006040518083038185875af1925050503d8060008114620022a9576040519150601f19603f3d011682016040523d82523d6000602084013e620022ae565b606091505b5091509150620022c0828286620022df565b92505050949350505050565b600080823b905060008111915050919050565b60608315620022f15782905062002344565b600083511115620023055782518084602001fd5b816040517f08c379a00000000000000000000000000000000000000000000000000000000081526004016200233b919062002beb565b60405180910390fd5b9392505050565b612d70806200381083390190565b6000620023706200236a8462002f6e565b62002f45565b905080838252602082019050828560208602820111156200239057600080fd5b60005b85811015620023c45781620023a98882620023ce565b84526020840193506020830192505060018101905062002393565b5050509392505050565b600081359050620023df81620037c1565b92915050565b60008083601f840112620023f857600080fd5b8235905067ffffffffffffffff8111156200241257600080fd5b6020830191508360208202830111156200242b57600080fd5b9250929050565b600082601f8301126200244457600080fd5b81356200245684826020860162002359565b91505092915050565b60008083601f8401126200247257600080fd5b8235905067ffffffffffffffff8111156200248c57600080fd5b602083019150836020820283011115620024a557600080fd5b9250929050565b600081519050620024bd81620037db565b92915050565b600081359050620024d481620037f5565b92915050565b600081519050620024eb81620037f5565b92915050565b6000602082840312156200250457600080fd5b60006200251484828501620023ce565b91505092915050565b6000806000606084860312156200253357600080fd5b60006200254386828701620023ce565b93505060206200255686828701620023ce565b92505060406200256986828701620024c3565b9150509250925092565b600080604083850312156200258757600080fd5b60006200259785828601620023ce565b9250506020620025aa85828601620024c3565b9150509250929050565b60008060208385031215620025c857600080fd5b600083013567ffffffffffffffff811115620025e357600080fd5b620025f185828601620023e5565b92509250509250929050565b600080600080604085870312156200261457600080fd5b600085013567ffffffffffffffff8111156200262f57600080fd5b6200263d87828801620023e5565b9450945050602085013567ffffffffffffffff8111156200265d57600080fd5b6200266b878288016200245f565b925092505092959194509250565b6000602082840312156200268c57600080fd5b600082013567ffffffffffffffff811115620026a757600080fd5b620026b58482850162002432565b91505092915050565b600060208284031215620026d157600080fd5b6000620026e184828501620024ac565b91505092915050565b600060208284031215620026fd57600080fd5b60006200270d84828501620024c3565b91505092915050565b6000602082840312156200272957600080fd5b60006200273984828501620024da565b91505092915050565b6200274d8162003100565b82525050565b6200275e8162003114565b82525050565b6000620027718262002f9d565b6200277d818562002fb3565b93506200278f818560208601620031c2565b80840191505092915050565b620027a6816200314a565b82525050565b620027b78162003172565b82525050565b620027c8816200319a565b82525050565b6000620027db8262002fa8565b620027e7818562002fbe565b9350620027f9818560208601620031c2565b620028048162003309565b840191505092915050565b60006200281e60218362002fbe565b91506200282b826200331a565b604082019050919050565b600062002845602c8362002fbe565b9150620028528262003369565b604082019050919050565b60006200286c60268362002fbe565b91506200287982620033b8565b604082019050919050565b60006200289360208362002fbe565b9150620028a08262003407565b602082019050919050565b6000620028ba60318362002fbe565b9150620028c78262003430565b604082019050919050565b6000620028e160308362002fbe565b9150620028ee826200347f565b604082019050919050565b60006200290860268362002fbe565b91506200291582620034ce565b604082019050919050565b60006200292f60308362002fbe565b91506200293c826200351d565b604082019050919050565b60006200295660208362002fbe565b915062002963826200356c565b602082019050919050565b60006200297d60258362002fbe565b91506200298a8262003595565b604082019050919050565b6000620029a4601d8362002fbe565b9150620029b182620035e4565b602082019050919050565b6000620029cb60308362002fbe565b9150620029d8826200360d565b604082019050919050565b6000620029f2602a8362002fbe565b9150620029ff826200365c565b604082019050919050565b600062002a19604b8362002fbe565b915062002a2682620036ab565b606082019050919050565b600062002a40602a8362002fbe565b915062002a4d8262003720565b604082019050919050565b600062002a67601a8362002fbe565b915062002a74826200376f565b602082019050919050565b600062002a8e601f8362002fbe565b915062002a9b8262003798565b602082019050919050565b62002ab18162003140565b82525050565b600062002ac5828462002764565b915081905092915050565b600060208201905062002ae7600083018462002742565b92915050565b600060408201905062002b04600083018562002742565b62002b13602083018462002742565b9392505050565b600060808201905062002b31600083018762002742565b62002b40602083018662002742565b62002b4f604083018562002742565b62002b5e606083018462002742565b95945050505050565b600060408201905062002b7e600083018562002742565b62002b8d602083018462002aa6565b9392505050565b600060208201905062002bab60008301846200279b565b92915050565b600060208201905062002bc86000830184620027ac565b92915050565b600060208201905062002be56000830184620027bd565b92915050565b6000602082019050818103600083015262002c078184620027ce565b905092915050565b6000602082019050818103600083015262002c2a816200280f565b9050919050565b6000602082019050818103600083015262002c4c8162002836565b9050919050565b6000602082019050818103600083015262002c6e816200285d565b9050919050565b6000602082019050818103600083015262002c908162002884565b9050919050565b6000602082019050818103600083015262002cb281620028ab565b9050919050565b6000602082019050818103600083015262002cd481620028d2565b9050919050565b6000602082019050818103600083015262002cf681620028f9565b9050919050565b6000602082019050818103600083015262002d188162002920565b9050919050565b6000602082019050818103600083015262002d3a8162002947565b9050919050565b6000602082019050818103600083015262002d5c816200296e565b9050919050565b6000602082019050818103600083015262002d7e8162002995565b9050919050565b6000602082019050818103600083015262002da081620029bc565b9050919050565b6000602082019050818103600083015262002dc281620029e3565b9050919050565b6000602082019050818103600083015262002de48162002a0a565b9050919050565b6000602082019050818103600083015262002e068162002a31565b9050919050565b6000602082019050818103600083015262002e288162002a58565b9050919050565b6000602082019050818103600083015262002e4a8162002a7f565b9050919050565b600060208201905062002e68600083018462002aa6565b92915050565b600060a08201905062002e85600083018862002aa6565b62002e94602083018762002742565b62002ea3604083018662002742565b62002eb2606083018562002aa6565b62002ec1608083018462002aa6565b9695505050505050565b600060408201905062002ee2600083018562002aa6565b62002ef1602083018462002aa6565b9392505050565b600060808201905062002f0f600083018762002aa6565b62002f1e602083018662002aa6565b62002f2d604083018562002753565b62002f3c606083018462002aa6565b95945050505050565b600062002f5162002f64565b905062002f5f8282620031f8565b919050565b6000604051905090565b600067ffffffffffffffff82111562002f8c5762002f8b620032da565b5b602082029050602081019050919050565b600081519050919050565b600081519050919050565b600081905092915050565b600082825260208201905092915050565b600062002fdc8262003140565b915062002fe98362003140565b9250827fffffffffffffffffffffffffffffffffffffffffffffffffffffffffffffffff038211156200302157620030206200327c565b5b828201905092915050565b6000620030398262003140565b9150620030468362003140565b925082620030595762003058620032ab565b5b828204905092915050565b6000620030718262003140565b91506200307e8362003140565b9250817fffffffffffffffffffffffffffffffffffffffffffffffffffffffffffffffff0483118215151615620030ba57620030b96200327c565b5b828202905092915050565b6000620030d28262003140565b9150620030df8362003140565b925082821015620030f557620030f46200327c565b5b828203905092915050565b60006200310d8262003120565b9050919050565b60008115159050919050565b600073ffffffffffffffffffffffffffffffffffffffff82169050919050565b6000819050919050565b600062003157826200315e565b9050919050565b60006200316b8262003120565b9050919050565b60006200317f8262003186565b9050919050565b6000620031938262003120565b9050919050565b6000620031a782620031ae565b9050919050565b6000620031bb8262003120565b9050919050565b60005b83811015620031e2578082015181840152602081019050620031c5565b83811115620031f2576000848401525b50505050565b620032038262003309565b810181811067ffffffffffffffff82111715620032255762003224620032da565b5b80604052505050565b60006200323b8262003140565b91507fffffffffffffffffffffffffffffffffffffffffffffffffffffffffffffffff8214156200327157620032706200327c565b5b600182019050919050565b7f4e487b7100000000000000000000000000000000000000000000000000000000600052601160045260246000fd5b7f4e487b7100000000000000000000000000000000000000000000000000000000600052601260045260246000fd5b7f4e487b7100000000000000000000000000000000000000000000000000000000600052604160045260246000fd5b6000601f19601f8301169050919050565b7f506f6f6c4d616e616765723a20706f6f6c20686173207a65726f20776569676860008201527f7400000000000000000000000000000000000000000000000000000000000000602082015250565b7f506f6f6c4d616e616765723a20706572696f6420616c6c6f636174696f6e206960008201527f7320696e636f6d706c6574650000000000000000000000000000000000000000602082015250565b7f4f776e61626c653a206e6577206f776e657220697320746865207a65726f206160008201527f6464726573730000000000000000000000000000000000000000000000000000602082015250565b7f506f6f6c4d616e616765723a20706f6f6c20646f6573206e6f74206578697374600082015250565b7f506f6f6c4d616e616765723a2063757272656e7420706572696f64206973207360008201527f74696c6c20696e697469616c697a696e67000000000000000000000000000000602082015250565b7f506f6f6c4d616e616765723a2063616e206f6e6c79207265667265736820323060008201527f20706f6f6c7320617420612074696d6500000000000000000000000000000000602082015250565b7f416464726573733a20696e73756666696369656e742062616c616e636520666f60008201527f722063616c6c0000000000000000000000000000000000000000000000000000602082015250565b7f506f6f6c4d616e616765723a2063757272656e7420706572696f64206d75737460008201527f20626520696e697469616c697a696e6700000000000000000000000000000000602082015250565b7f4f776e61626c653a2063616c6c6572206973206e6f7420746865206f776e6572600082015250565b7f506f6f6c4d616e616765723a20706572696f6420616c7265616479207265667260008201527f6573686564000000000000000000000000000000000000000000000000000000602082015250565b7f416464726573733a2063616c6c20746f206e6f6e2d636f6e7472616374000000600082015250565b7f506f6f6c4d616e616765723a20746f74616c20776569676874206d757374206260008201527f652067726561746572207468616e203000000000000000000000000000000000602082015250565b7f5361666545524332303a204552433230206f7065726174696f6e20646964206e60008201527f6f74207375636365656400000000000000000000000000000000000000000000602082015250565b7f506f6f6c4d616e616765723a206e6f7420656e6f75676820726577617264732e60008201527f20596f75206d6179206e65656420746f2072656672657368207468652052656c60208201527f65617365457363726f772e000000000000000000000000000000000000000000604082015250565b7f506f6f6c4d616e616765723a20617267756d656e7473206d757374206265207360008201527f616d65206c656e67746800000000000000000000000000000000000000000000602082015250565b7f4f70657261746f723a206d757374206265206f70657261746f72000000000000600082015250565b7f5265656e7472616e637947756172643a207265656e7472616e742063616c6c00600082015250565b620037cc8162003100565b8114620037d857600080fd5b50565b620037e68162003114565b8114620037f257600080fd5b50565b620038008162003140565b81146200380c57600080fd5b5056fe60806040526000600655600060075562093a806008553480156200002257600080fd5b5060405162002d7038038062002d70833981810160405281019062000048919062000225565b83600073ffffffffffffffffffffffffffffffffffffffff168173ffffffffffffffffffffffffffffffffffffffff161415620000bc576040517f08c379a0000000000000000000000000000000000000000000000000000000008152600401620000b390620002f6565b60405180910390fd5b806000806101000a81548173ffffffffffffffffffffffffffffffffffffffff021916908373ffffffffffffffffffffffffffffffffffffffff1602179055507fb532073b38c83145e3e5135377a08bf9aab55bc0fd7c1179cd4fb995d2a5159c60008260405162000130929190620002c9565b60405180910390a150600160038190555081600460006101000a81548173ffffffffffffffffffffffffffffffffffffffff021916908373ffffffffffffffffffffffffffffffffffffffff16021790555080600560006101000a81548173ffffffffffffffffffffffffffffffffffffffff021916908373ffffffffffffffffffffffffffffffffffffffff16021790555082600260006101000a81548173ffffffffffffffffffffffffffffffffffffffff021916908373ffffffffffffffffffffffffffffffffffffffff16021790555050505050620003a0565b6000815190506200021f8162000386565b92915050565b600080600080608085870312156200023c57600080fd5b60006200024c878288016200020e565b94505060206200025f878288016200020e565b935050604062000272878288016200020e565b925050606062000285878288016200020e565b91505092959194509250565b6200029c8162000329565b82525050565b6000620002b160198362000318565b9150620002be826200035d565b602082019050919050565b6000604082019050620002e0600083018562000291565b620002ef602083018462000291565b9392505050565b600060208201905081810360008301526200031181620002a2565b9050919050565b600082825260208201905092915050565b600062000336826200033d565b9050919050565b600073ffffffffffffffffffffffffffffffffffffffff82169050919050565b7f4f776e657220616464726573732063616e6e6f74206265203000000000000000600082015250565b620003918162000329565b81146200039d57600080fd5b50565b6129c080620003b06000396000f3fe608060405234801561001057600080fd5b50600436106101ce5760003560e01c806372f702f311610104578063a694fc3a116100a2578063d1af0c7d11610071578063d1af0c7d146104d1578063df136d65146104ef578063e9fad8ee1461050d578063ebe2b12b14610517576101ce565b8063a694fc3a1461045d578063c8f33c9114610479578063cc1a378f14610497578063cd3daf9d146104b3576101ce565b806380faa57d116100de57806380faa57d146103d55780638980f11f146103f35780638b8763471461040f5780638da5cb5b1461043f576101ce565b806372f702f31461038f57806379ba5097146103ad5780637b0a47ee146103b7576101ce565b8063386a9525116101715780633fc6df6e1161014b5780633fc6df6e1461030757806353a47bb714610325578063556f6e6b1461034357806370a082311461035f576101ce565b8063386a9525146102c35780633c6b16ab146102e15780633d18b912146102fd576101ce565b806318160ddd116101ad57806318160ddd1461024f578063197621431461026d5780631c1f78eb146102895780632e1a7d4d146102a7576101ce565b80628cc262146101d35780630700037d146102035780631627540c14610233575b600080fd5b6101ed60048036038101906101e89190611e26565b610535565b6040516101fa91906123b9565b60405180910390f35b61021d60048036038101906102189190611e26565b610653565b60405161022a91906123b9565b60405180910390f35b61024d60048036038101906102489190611e26565b61066b565b005b6102576106ee565b60405161026491906123b9565b60405180910390f35b61028760048036038101906102829190611e26565b6106f8565b005b610291610744565b60405161029e91906123b9565b60405180910390f35b6102c160048036038101906102bc9190611eb4565b610762565b005b6102cb610a2e565b6040516102d891906123b9565b60405180910390f35b6102fb60048036038101906102f69190611eb4565b610a34565b005b610305610d9a565b005b61030f611006565b60405161031c9190612158565b60405180910390f35b61032d61102c565b60405161033a9190612158565b60405180910390f35b61035d60048036038101906103589190611eb4565b611052565b005b61037960048036038101906103749190611e26565b61114a565b60405161038691906123b9565b60405180910390f35b610397611193565b6040516103a491906121fc565b60405180910390f35b6103b56111b9565b005b6103bf61136a565b6040516103cc91906123b9565b60405180910390f35b6103dd611370565b6040516103ea91906123b9565b60405180910390f35b61040d60048036038101906104089190611e4f565b611383565b005b61042960048036038101906104249190611e26565b6114a4565b60405161043691906123b9565b60405180910390f35b6104476114bc565b6040516104549190612158565b60405180910390f35b61047760048036038101906104729190611eb4565b6114e0565b005b6104816117ae565b60405161048e91906123b9565b60405180910390f35b6104b160048036038101906104ac9190611eb4565b6117b4565b005b6104bb611843565b6040516104c891906123b9565b60405180910390f35b6104d96118d1565b6040516104e691906121fc565b60405180910390f35b6104f76118f7565b60405161050491906123b9565b60405180910390f35b6105156118fd565b005b61051f61194f565b60405161052c91906123b9565b60405180910390f35b600061064c600c60008473ffffffffffffffffffffffffffffffffffffffff1673ffffffffffffffffffffffffffffffffffffffff1681526020019081526020016000205461063e670de0b6b3a76400006106306105e2600b60008973ffffffffffffffffffffffffffffffffffffffff1673ffffffffffffffffffffffffffffffffffffffff168152602001908152602001600020546105d4611843565b61195590919063ffffffff16565b600e60008973ffffffffffffffffffffffffffffffffffffffff1673ffffffffffffffffffffffffffffffffffffffff1681526020019081526020016000205461196b90919063ffffffff16565b61198190919063ffffffff16565b61199790919063ffffffff16565b9050919050565b600c6020528060005260406000206000915090505481565b6106736119ad565b80600160006101000a81548173ffffffffffffffffffffffffffffffffffffffff021916908373ffffffffffffffffffffffffffffffffffffffff1602179055507f906a1c6bd7e3091ea86693dd029a831c19049ce77f1dce2ce0bab1cacbabce22816040516106e39190612158565b60405180910390a150565b6000600d54905090565b6107006119ad565b80600260006101000a81548173ffffffffffffffffffffffffffffffffffffffff021916908373ffffffffffffffffffffffffffffffffffffffff16021790555050565b600061075d60085460075461196b90919063ffffffff16565b905090565b600260035414156107a8576040517f08c379a000000000000000000000000000000000000000000000000000000000815260040161079f90612379565b60405180910390fd5b6002600381905550336107b9611843565b600a819055506107c7611370565b600981905550600073ffffffffffffffffffffffffffffffffffffffff168173ffffffffffffffffffffffffffffffffffffffff16146108945761080a81610535565b600c60008373ffffffffffffffffffffffffffffffffffffffff1673ffffffffffffffffffffffffffffffffffffffff16815260200190815260200160002081905550600a54600b60008373ffffffffffffffffffffffffffffffffffffffff1673ffffffffffffffffffffffffffffffffffffffff168152602001908152602001600020819055505b600082116108d7576040517f08c379a00000000000000000000000000000000000000000000000000000000081526004016108ce906122d9565b60405180910390fd5b6108ec82600d5461195590919063ffffffff16565b600d8190555061094482600e60003373ffffffffffffffffffffffffffffffffffffffff1673ffffffffffffffffffffffffffffffffffffffff1681526020019081526020016000205461195590919063ffffffff16565b600e60003373ffffffffffffffffffffffffffffffffffffffff1673ffffffffffffffffffffffffffffffffffffffff168152602001908152602001600020819055506109d43383600560009054906101000a900473ffffffffffffffffffffffffffffffffffffffff1673ffffffffffffffffffffffffffffffffffffffff16611a3d9092919063ffffffff16565b3373ffffffffffffffffffffffffffffffffffffffff167f7084f5476618d8e60b11ef0d7d3f06914655adb8793e28ff7f018d4c76d505d583604051610a1a91906123b9565b60405180910390a250600160038190555050565b60085481565b600260009054906101000a900473ffffffffffffffffffffffffffffffffffffffff1673ffffffffffffffffffffffffffffffffffffffff163373ffffffffffffffffffffffffffffffffffffffff1614610ac4576040517f08c379a0000000000000000000000000000000000000000000000000000000008152600401610abb90612339565b60405180910390fd5b6000610ace611843565b600a81905550610adc611370565b600981905550600073ffffffffffffffffffffffffffffffffffffffff168173ffffffffffffffffffffffffffffffffffffffff1614610ba957610b1f81610535565b600c60008373ffffffffffffffffffffffffffffffffffffffff1673ffffffffffffffffffffffffffffffffffffffff16815260200190815260200160002081905550600a54600b60008373ffffffffffffffffffffffffffffffffffffffff1673ffffffffffffffffffffffffffffffffffffffff168152602001908152602001600020819055505b6006544210610bd257610bc76008548361198190919063ffffffff16565b600781905550610c34565b6000610be94260065461195590919063ffffffff16565b90506000610c026007548361196b90919063ffffffff16565b9050610c2b600854610c1d838761199790919063ffffffff16565b61198190919063ffffffff16565b60078190555050505b6000600460009054906101000a900473ffffffffffffffffffffffffffffffffffffffff1673ffffffffffffffffffffffffffffffffffffffff166370a08231306040518263ffffffff1660e01b8152600401610c919190612158565b60206040518083038186803b158015610ca957600080fd5b505afa158015610cbd573d6000803e3d6000fd5b505050506040513d601f19601f82011682018060405250810190610ce19190611edd565b9050610cf86008548261198190919063ffffffff16565b6007541115610d3c576040517f08c379a0000000000000000000000000000000000000000000000000000000008152600401610d33906122f9565b60405180910390fd5b42600981905550610d586008544261199790919063ffffffff16565b6006819055507fde88a922e0d3b88b24e9623efeb464919c6bf9f66857a65e2bfcf2ce87a9433d83604051610d8d91906123b9565b60405180910390a1505050565b60026003541415610de0576040517f08c379a0000000000000000000000000000000000000000000000000000000008152600401610dd790612379565b60405180910390fd5b600260038190555033610df1611843565b600a81905550610dff611370565b600981905550600073ffffffffffffffffffffffffffffffffffffffff168173ffffffffffffffffffffffffffffffffffffffff1614610ecc57610e4281610535565b600c60008373ffffffffffffffffffffffffffffffffffffffff1673ffffffffffffffffffffffffffffffffffffffff16815260200190815260200160002081905550600a54600b60008373ffffffffffffffffffffffffffffffffffffffff1673ffffffffffffffffffffffffffffffffffffffff168152602001908152602001600020819055505b6000600c60003373ffffffffffffffffffffffffffffffffffffffff1673ffffffffffffffffffffffffffffffffffffffff1681526020019081526020016000205490506000811115610ffa576000600c60003373ffffffffffffffffffffffffffffffffffffffff1673ffffffffffffffffffffffffffffffffffffffff16815260200190815260200160002081905550610fab3382600460009054906101000a900473ffffffffffffffffffffffffffffffffffffffff1673ffffffffffffffffffffffffffffffffffffffff16611a3d9092919063ffffffff16565b3373ffffffffffffffffffffffffffffffffffffffff167fe2403640ba68fed3a2f88b7557551d1993f84b99bb10ff833f0cf8db0c5e048682604051610ff191906123b9565b60405180910390a25b50506001600381905550565b600260009054906101000a900473ffffffffffffffffffffffffffffffffffffffff1681565b600160009054906101000a900473ffffffffffffffffffffffffffffffffffffffff1681565b61105a6119ad565b6000611064611843565b600a81905550611072611370565b600981905550600073ffffffffffffffffffffffffffffffffffffffff168173ffffffffffffffffffffffffffffffffffffffff161461113f576110b581610535565b600c60008373ffffffffffffffffffffffffffffffffffffffff1673ffffffffffffffffffffffffffffffffffffffff16815260200190815260200160002081905550600a54600b60008373ffffffffffffffffffffffffffffffffffffffff1673ffffffffffffffffffffffffffffffffffffffff168152602001908152602001600020819055505b816006819055505050565b6000600e60008373ffffffffffffffffffffffffffffffffffffffff1673ffffffffffffffffffffffffffffffffffffffff168152602001908152602001600020549050919050565b600560009054906101000a900473ffffffffffffffffffffffffffffffffffffffff1681565b600160009054906101000a900473ffffffffffffffffffffffffffffffffffffffff1673ffffffffffffffffffffffffffffffffffffffff163373ffffffffffffffffffffffffffffffffffffffff1614611249576040517f08c379a000000000000000000000000000000000000000000000000000000000815260040161124090612259565b60405180910390fd5b7fb532073b38c83145e3e5135377a08bf9aab55bc0fd7c1179cd4fb995d2a5159c60008054906101000a900473ffffffffffffffffffffffffffffffffffffffff16600160009054906101000a900473ffffffffffffffffffffffffffffffffffffffff166040516112bc929190612173565b60405180910390a1600160009054906101000a900473ffffffffffffffffffffffffffffffffffffffff166000806101000a81548173ffffffffffffffffffffffffffffffffffffffff021916908373ffffffffffffffffffffffffffffffffffffffff1602179055506000600160006101000a81548173ffffffffffffffffffffffffffffffffffffffff021916908373ffffffffffffffffffffffffffffffffffffffff160217905550565b60075481565b600061137e42600654611ac3565b905090565b61138b6119ad565b600560009054906101000a900473ffffffffffffffffffffffffffffffffffffffff1673ffffffffffffffffffffffffffffffffffffffff168273ffffffffffffffffffffffffffffffffffffffff16141561141c576040517f08c379a000000000000000000000000000000000000000000000000000000000815260040161141390612399565b60405180910390fd5b61146760008054906101000a900473ffffffffffffffffffffffffffffffffffffffff16828473ffffffffffffffffffffffffffffffffffffffff16611a3d9092919063ffffffff16565b7f8c1256b8896378cd5044f80c202f9772b9d77dc85c8a6eb51967210b09bfaa2882826040516114989291906121d3565b60405180910390a15050565b600b6020528060005260406000206000915090505481565b60008054906101000a900473ffffffffffffffffffffffffffffffffffffffff1681565b60026003541415611526576040517f08c379a000000000000000000000000000000000000000000000000000000000815260040161151d90612379565b60405180910390fd5b600260038190555033611537611843565b600a81905550611545611370565b600981905550600073ffffffffffffffffffffffffffffffffffffffff168173ffffffffffffffffffffffffffffffffffffffff16146116125761158881610535565b600c60008373ffffffffffffffffffffffffffffffffffffffff1673ffffffffffffffffffffffffffffffffffffffff16815260200190815260200160002081905550600a54600b60008373ffffffffffffffffffffffffffffffffffffffff1673ffffffffffffffffffffffffffffffffffffffff168152602001908152602001600020819055505b60008211611655576040517f08c379a000000000000000000000000000000000000000000000000000000000815260040161164c90612279565b60405180910390fd5b61166a82600d5461199790919063ffffffff16565b600d819055506116c282600e60003373ffffffffffffffffffffffffffffffffffffffff1673ffffffffffffffffffffffffffffffffffffffff1681526020019081526020016000205461199790919063ffffffff16565b600e60003373ffffffffffffffffffffffffffffffffffffffff1673ffffffffffffffffffffffffffffffffffffffff16815260200190815260200160002081905550611754333084600560009054906101000a900473ffffffffffffffffffffffffffffffffffffffff1673ffffffffffffffffffffffffffffffffffffffff16611adc909392919063ffffffff16565b3373ffffffffffffffffffffffffffffffffffffffff167f9e71bc8eea02a63969f509818f2dafb9254532904319f9dbda79b67bd34a5f3d8360405161179a91906123b9565b60405180910390a250600160038190555050565b60095481565b6117bc6119ad565b6006544211611800576040517f08c379a00000000000000000000000000000000000000000000000000000000081526004016117f790612239565b60405180910390fd5b806008819055507ffb46ca5a5e06d4540d6387b930a7c978bce0db5f449ec6b3f5d07c6e1d44f2d360085460405161183891906123b9565b60405180910390a150565b600080600d54141561185957600a5490506118ce565b6118cb6118ba600d546118ac670de0b6b3a764000061189e600754611890600954611882611370565b61195590919063ffffffff16565b61196b90919063ffffffff16565b61196b90919063ffffffff16565b61198190919063ffffffff16565b600a5461199790919063ffffffff16565b90505b90565b600460009054906101000a900473ffffffffffffffffffffffffffffffffffffffff1681565b600a5481565b611945600e60003373ffffffffffffffffffffffffffffffffffffffff1673ffffffffffffffffffffffffffffffffffffffff16815260200190815260200160002054610762565b61194d610d9a565b565b60065481565b6000818361196391906124e7565b905092915050565b60008183611979919061248d565b905092915050565b6000818361198f919061245c565b905092915050565b600081836119a59190612406565b905092915050565b60008054906101000a900473ffffffffffffffffffffffffffffffffffffffff1673ffffffffffffffffffffffffffffffffffffffff163373ffffffffffffffffffffffffffffffffffffffff1614611a3b576040517f08c379a0000000000000000000000000000000000000000000000000000000008152600401611a32906122b9565b60405180910390fd5b565b611abe8363a9059cbb60e01b8484604051602401611a5c9291906121d3565b604051602081830303815290604052907bffffffffffffffffffffffffffffffffffffffffffffffffffffffff19166020820180517bffffffffffffffffffffffffffffffffffffffffffffffffffffffff8381831617835250505050611b65565b505050565b6000818310611ad25781611ad4565b825b905092915050565b611b5f846323b872dd60e01b858585604051602401611afd9392919061219c565b604051602081830303815290604052907bffffffffffffffffffffffffffffffffffffffffffffffffffffffff19166020820180517bffffffffffffffffffffffffffffffffffffffffffffffffffffffff8381831617835250505050611b65565b50505050565b6000611bc7826040518060400160405280602081526020017f5361666545524332303a206c6f772d6c6576656c2063616c6c206661696c65648152508573ffffffffffffffffffffffffffffffffffffffff16611c2c9092919063ffffffff16565b9050600081511115611c275780806020019051810190611be79190611e8b565b611c26576040517f08c379a0000000000000000000000000000000000000000000000000000000008152600401611c1d90612359565b60405180910390fd5b5b505050565b6060611c3b8484600085611c44565b90509392505050565b606082471015611c89576040517f08c379a0000000000000000000000000000000000000000000000000000000008152600401611c8090612299565b60405180910390fd5b611c9285611d58565b611cd1576040517f08c379a0000000000000000000000000000000000000000000000000000000008152600401611cc890612319565b60405180910390fd5b6000808673ffffffffffffffffffffffffffffffffffffffff168587604051611cfa9190612141565b60006040518083038185875af1925050503d8060008114611d37576040519150601f19603f3d011682016040523d82523d6000602084013e611d3c565b606091505b5091509150611d4c828286611d6b565b92505050949350505050565b600080823b905060008111915050919050565b60608315611d7b57829050611dcb565b600083511115611d8e5782518084602001fd5b816040517f08c379a0000000000000000000000000000000000000000000000000000000008152600401611dc29190612217565b60405180910390fd5b9392505050565b600081359050611de181612945565b92915050565b600081519050611df68161295c565b92915050565b600081359050611e0b81612973565b92915050565b600081519050611e2081612973565b92915050565b600060208284031215611e3857600080fd5b6000611e4684828501611dd2565b91505092915050565b60008060408385031215611e6257600080fd5b6000611e7085828601611dd2565b9250506020611e8185828601611dfc565b9150509250929050565b600060208284031215611e9d57600080fd5b6000611eab84828501611de7565b91505092915050565b600060208284031215611ec657600080fd5b6000611ed484828501611dfc565b91505092915050565b600060208284031215611eef57600080fd5b6000611efd84828501611e11565b91505092915050565b611f0f8161251b565b82525050565b6000611f20826123d4565b611f2a81856123ea565b9350611f3a818560208601612587565b80840191505092915050565b611f4f81612563565b82525050565b6000611f60826123df565b611f6a81856123f5565b9350611f7a818560208601612587565b611f8381612618565b840191505092915050565b6000611f9b6058836123f5565b9150611fa682612629565b606082019050919050565b6000611fbe6035836123f5565b9150611fc98261269e565b604082019050919050565b6000611fe1600e836123f5565b9150611fec826126ed565b602082019050919050565b60006120046026836123f5565b915061200f82612716565b604082019050919050565b6000612027602f836123f5565b915061203282612765565b604082019050919050565b600061204a6011836123f5565b9150612055826127b4565b602082019050919050565b600061206d6018836123f5565b9150612078826127dd565b602082019050919050565b6000612090601d836123f5565b915061209b82612806565b602082019050919050565b60006120b3602a836123f5565b91506120be8261282f565b604082019050919050565b60006120d6602a836123f5565b91506120e18261287e565b604082019050919050565b60006120f9601f836123f5565b9150612104826128cd565b602082019050919050565b600061211c6021836123f5565b9150612127826128f6565b604082019050919050565b61213b81612559565b82525050565b600061214d8284611f15565b915081905092915050565b600060208201905061216d6000830184611f06565b92915050565b60006040820190506121886000830185611f06565b6121956020830184611f06565b9392505050565b60006060820190506121b16000830186611f06565b6121be6020830185611f06565b6121cb6040830184612132565b949350505050565b60006040820190506121e86000830185611f06565b6121f56020830184612132565b9392505050565b60006020820190506122116000830184611f46565b92915050565b600060208201905081810360008301526122318184611f55565b905092915050565b6000602082019050818103600083015261225281611f8e565b9050919050565b6000602082019050818103600083015261227281611fb1565b9050919050565b6000602082019050818103600083015261229281611fd4565b9050919050565b600060208201905081810360008301526122b281611ff7565b9050919050565b600060208201905081810360008301526122d28161201a565b9050919050565b600060208201905081810360008301526122f28161203d565b9050919050565b6000602082019050818103600083015261231281612060565b9050919050565b6000602082019050818103600083015261233281612083565b9050919050565b60006020820190508181036000830152612352816120a6565b9050919050565b60006020820190508181036000830152612372816120c9565b9050919050565b60006020820190508181036000830152612392816120ec565b9050919050565b600060208201905081810360008301526123b28161210f565b9050919050565b60006020820190506123ce6000830184612132565b92915050565b600081519050919050565b600081519050919050565b600081905092915050565b600082825260208201905092915050565b600061241182612559565b915061241c83612559565b9250827fffffffffffffffffffffffffffffffffffffffffffffffffffffffffffffffff03821115612451576124506125ba565b5b828201905092915050565b600061246782612559565b915061247283612559565b925082612482576124816125e9565b5b828204905092915050565b600061249882612559565b91506124a383612559565b9250817fffffffffffffffffffffffffffffffffffffffffffffffffffffffffffffffff04831182151516156124dc576124db6125ba565b5b828202905092915050565b60006124f282612559565b91506124fd83612559565b9250828210156125105761250f6125ba565b5b828203905092915050565b600061252682612539565b9050919050565b60008115159050919050565b600073ffffffffffffffffffffffffffffffffffffffff82169050919050565b6000819050919050565b600061256e82612575565b9050919050565b600061258082612539565b9050919050565b60005b838110156125a557808201518184015260208101905061258a565b838111156125b4576000848401525b50505050565b7f4e487b7100000000000000000000000000000000000000000000000000000000600052601160045260246000fd5b7f4e487b7100000000000000000000000000000000000000000000000000000000600052601260045260246000fd5b6000601f19601f8301169050919050565b7f50726576696f7573207265776172647320706572696f64206d7573742062652060008201527f636f6d706c657465206265666f7265206368616e67696e67207468652064757260208201527f6174696f6e20666f7220746865206e657720706572696f640000000000000000604082015250565b7f596f75206d757374206265206e6f6d696e61746564206265666f726520796f7560008201527f2063616e20616363657074206f776e6572736869700000000000000000000000602082015250565b7f43616e6e6f74207374616b652030000000000000000000000000000000000000600082015250565b7f416464726573733a20696e73756666696369656e742062616c616e636520666f60008201527f722063616c6c0000000000000000000000000000000000000000000000000000602082015250565b7f4f6e6c792074686520636f6e7472616374206f776e6572206d6179207065726660008201527f6f726d207468697320616374696f6e0000000000000000000000000000000000602082015250565b7f43616e6e6f742077697468647261772030000000000000000000000000000000600082015250565b7f50726f76696465642072657761726420746f6f20686967680000000000000000600082015250565b7f416464726573733a2063616c6c20746f206e6f6e2d636f6e7472616374000000600082015250565b7f43616c6c6572206973206e6f742052657761726473446973747269627574696f60008201527f6e20636f6e747261637400000000000000000000000000000000000000000000602082015250565b7f5361666545524332303a204552433230206f7065726174696f6e20646964206e60008201527f6f74207375636365656400000000000000000000000000000000000000000000602082015250565b7f5265656e7472616e637947756172643a207265656e7472616e742063616c6c00600082015250565b7f43616e6e6f7420776974686472617720746865207374616b696e6720746f6b6560008201527f6e00000000000000000000000000000000000000000000000000000000000000602082015250565b61294e8161251b565b811461295957600080fd5b50565b6129658161252d565b811461297057600080fd5b50565b61297c81612559565b811461298757600080fd5b5056fea264697066735822122090f9faf8df6e3ef6879ff5632e8313b994fcaaa87f32a08836ad5be81ee9028064736f6c63430008030033a2646970667358221220d56f92534cf2acbf127661bf6ec4082733ff108e335286b3f2da71faeb05d7c564736f6c63430008030033",
  "immutableReferences": {
    "181": [
      {
        "length": 32,
        "start": 1666
      },
      {
        "length": 32,
        "start": 4260
      },
      {
        "length": 32,
        "start": 6459
      },
      {
        "length": 32,
        "start": 6717
      },
      {
        "length": 32,
        "start": 6948
      }
    ],
    "184": [
      {
        "length": 32,
        "start": 2889
      },
      {
        "length": 32,
        "start": 4078
      },
      {
        "length": 32,
        "start": 5152
      },
      {
        "length": 32,
        "start": 5318
      }
    ],
    "187": [
      {
        "length": 32,
        "start": 5493
      },
      {
        "length": 32,
        "start": 8109
      }
    ]
  },
  "source": "// SPDX-License-Identifier: MIT\r\n\r\npragma solidity ^0.8.3;\r\n\r\nimport \"../openzeppelin-solidity/contracts/Ownable.sol\";\r\nimport \"../synthetix/contracts/StakingRewards.sol\";\r\n\r\nimport \"../utils/Operator.sol\";\r\nimport \"../interfaces/ITokenAllocator.sol\";\r\nimport \"../interfaces/IReleaseSchedule.sol\";\r\n\r\n/**\r\n * Manages liquidity mining pools.\r\n * To set up (owner only):\r\n * 1. Set weights of the pools using `setWeight`.\r\n *\r\n * To distribute rewards (operator only):\r\n * Either: (recommended)\r\n *   2. Call `initializePeriod` for every pool part of the period.\r\n * Or: (if past the block gas limit)\r\n *   2. Start the next period with a specified number of reward tokens using `beginInitializePeriod`.\r\n *   3. Call `createOrRefreshPool` for every pool part of the period.\r\n *   4. Complete the period initialization using `commitInitializePeriod`.\r\n */\r\ncontract PoolManager is Operator, ReentrancyGuard {\r\n    using SafeERC20 for IERC20;\r\n    using SafeMath for uint256;\r\n\r\n    struct PoolInfo {\r\n        uint256 index;\r\n        address stakingToken;\r\n        address poolAddress;\r\n        uint256 weight;\r\n        // The next period in which the pool needs to be filled\r\n        uint256 nextPeriod;\r\n    }\r\n    mapping(address => PoolInfo) public pools;\r\n    uint256 public totalWeight;\r\n\r\n    struct Period {\r\n        uint256 index;\r\n        uint256 amount;\r\n        // If true, the period is not done being allocated.\r\n        bool isInitializing;\r\n        // Total amount of tokens allocated towards this period so far.\r\n        uint256 totalWeightAllocated;\r\n    }\r\n    Period public currentPeriod;\r\n\r\n    IERC20 public immutable rewardsToken;\r\n    ITokenAllocator public immutable miningAllocator;\r\n    IReleaseSchedule public immutable releaseSchedule;\r\n\r\n    mapping(uint256 => address) public poolsByIndex;\r\n    uint256 public poolsCount;\r\n    uint256 public nextPeriod;\r\n\r\n    constructor(\r\n        address owner_,\r\n        address operator_,\r\n        address rewardsToken_,\r\n        address miningAllocator_,\r\n        address releaseSchedule_\r\n    ) Operator(owner_, operator_) {\r\n        rewardsToken = IERC20(rewardsToken_);\r\n        miningAllocator = ITokenAllocator(miningAllocator_);\r\n        releaseSchedule = IReleaseSchedule(releaseSchedule_);\r\n    }\r\n\r\n    // Emitted when a pool's weight is changed.\r\n    event UpdatePoolWeight(\r\n        address indexed stakingToken,\r\n        uint256 indexed index,\r\n        uint256 weight,\r\n        bool indexed isNewPool\r\n    );\r\n\r\n    // Emitted when a new period begins.\r\n    event PeriodInitialized(uint256 index, uint256 amount);\r\n\r\n    // ---------\r\n    // Timelocked methods\r\n    // ---------\r\n\r\n    /**\r\n     * Sets the weight of a pool's rewards.\r\n     * If the pool doesn't exist, it creates the staking pool contract\r\n     * and adds it to the list of pools.\r\n     */\r\n    function setWeight(address _stakingToken, uint256 _weight)\r\n        public\r\n        onlyOwner\r\n        notInitializingPeriod\r\n    {\r\n        PoolInfo storage pool = pools[_stakingToken];\r\n        if (pool.stakingToken == address(0)) {\r\n            // create pool\r\n            address poolAddress =\r\n                address(\r\n                    new StakingRewards(\r\n                        address(this),\r\n                        address(this),\r\n                        address(rewardsToken),\r\n                        _stakingToken\r\n                    )\r\n                );\r\n            pools[_stakingToken] = PoolInfo({\r\n                index: poolsCount,\r\n                stakingToken: _stakingToken,\r\n                poolAddress: poolAddress,\r\n                weight: _weight,\r\n                nextPeriod: nextPeriod\r\n            });\r\n            poolsByIndex[poolsCount++] = _stakingToken;\r\n            totalWeight = totalWeight.add(_weight);\r\n            emit UpdatePoolWeight(\r\n                _stakingToken,\r\n                pools[_stakingToken].index,\r\n                _weight,\r\n                true\r\n            );\r\n        } else {\r\n            totalWeight = totalWeight.sub(pool.weight).add(_weight);\r\n            pool.weight = _weight;\r\n            emit UpdatePoolWeight(_stakingToken, pool.index, _weight, false);\r\n        }\r\n    }\r\n\r\n    /**\r\n     * Sets the weight of multiple pools at the same time.\r\n     */\r\n    function batchSetWeight(\r\n        address[] calldata _stakingTokens,\r\n        uint256[] calldata _weights\r\n    ) external {\r\n        require(\r\n            _stakingTokens.length == _weights.length,\r\n            \"PoolManager: arguments must be same length\"\r\n        );\r\n        for (uint256 i = 0; i < _stakingTokens.length; i++) {\r\n            setWeight(_stakingTokens[i], _weights[i]);\r\n        }\r\n    }\r\n\r\n    // ---------\r\n    // Non-timelocked methods\r\n    // ---------\r\n\r\n    /**\r\n     * Starts the next period with the allocation.\r\n     */\r\n    function beginInitializePeriod() public onlyOperator notInitializingPeriod {\r\n        // This check ensures we don't get tokens stuck in the contract.\r\n        require(\r\n            totalWeight > 0,\r\n            \"PoolManager: total weight must be greater than 0\"\r\n        );\r\n        miningAllocator.getReward();\r\n        uint256 amount = computeAmountForPeriod(nextPeriod);\r\n        require(\r\n            amount <= rewardsToken.balanceOf(address(this)),\r\n            \"PoolManager: not enough rewards. You may need to refresh the ReleaseEscrow.\"\r\n        );\r\n        currentPeriod = Period({\r\n            index: nextPeriod,\r\n            amount: amount,\r\n            isInitializing: true,\r\n            totalWeightAllocated: 0\r\n        });\r\n        nextPeriod = nextPeriod.add(1);\r\n    }\r\n\r\n    /**\r\n     * Commits the next period, allowing the next wave of tokens to be distributed.\r\n     */\r\n    function commitInitializePeriod() public onlyOperator initializingPeriod {\r\n        require(\r\n            currentPeriod.totalWeightAllocated == totalWeight,\r\n            \"PoolManager: period allocation is incomplete\"\r\n        );\r\n        currentPeriod.isInitializing = false;\r\n        emit PeriodInitialized(currentPeriod.index, currentPeriod.amount);\r\n    }\r\n\r\n    /**\r\n     * Computes the amount of rewards to be distributed for a given period.\r\n     */\r\n    function computeAmountForPeriod(uint256 _period)\r\n        public\r\n        view\r\n        returns (uint256)\r\n    {\r\n        return\r\n            releaseSchedule\r\n                .getTokensForPeriod(_period)\r\n                .mul(miningAllocator.balanceOf(address(this)))\r\n                .div(miningAllocator.totalSupply());\r\n    }\r\n\r\n    /**\r\n     * Computes the amount of tokens a pool is expected to earn for a given period.\r\n     */\r\n    function computeAmountForPool(address _stakingToken, uint256 _period)\r\n        public\r\n        view\r\n        returns (uint256)\r\n    {\r\n        return computePoolShare(_stakingToken, computeAmountForPeriod(_period));\r\n    }\r\n\r\n    /**\r\n     * Computes the amount of tokens a pool is expected to earn for a given total number of tokens.\r\n     */\r\n    function computePoolShare(address _stakingToken, uint256 _amount)\r\n        public\r\n        view\r\n        returns (uint256)\r\n    {\r\n        return _amount.mul(pools[_stakingToken].weight).div(totalWeight);\r\n    }\r\n\r\n    /**\r\n     * Updates a pool's rewards.\r\n     */\r\n    function refreshPool(address _stakingToken)\r\n        public\r\n        onlyOperator\r\n        initializingPeriod\r\n        nonReentrant\r\n    {\r\n        PoolInfo storage poolInfo = pools[_stakingToken];\r\n        require(\r\n            poolInfo.stakingToken != address(0),\r\n            \"PoolManager: pool does not exist\"\r\n        );\r\n        require(\r\n            poolInfo.nextPeriod <= currentPeriod.index,\r\n            \"PoolManager: period already refreshed\"\r\n        );\r\n        require(poolInfo.weight != 0, \"PoolManager: pool has zero weight\");\r\n\r\n        poolInfo.nextPeriod = nextPeriod;\r\n        currentPeriod.totalWeightAllocated = currentPeriod\r\n            .totalWeightAllocated\r\n            .add(poolInfo.weight);\r\n        uint256 amountToStake =\r\n            computePoolShare(_stakingToken, currentPeriod.amount);\r\n\r\n        // Approve for transfer\r\n        rewardsToken.approve(poolInfo.poolAddress, amountToStake);\r\n\r\n        // Deploy the tokens into the pool\r\n        rewardsToken.safeTransfer(poolInfo.poolAddress, amountToStake);\r\n        RewardsDistributionRecipient(poolInfo.poolAddress).notifyRewardAmount(\r\n            amountToStake\r\n        );\r\n    }\r\n\r\n    /**\r\n     * Initialize a period in one transaction.\r\n     * This function may not work in one block if there are a lot of pools.\r\n     */\r\n    function initializePeriod(address[] calldata _stakingTokens) external {\r\n        beginInitializePeriod();\r\n        batchRefreshPools(_stakingTokens);\r\n        commitInitializePeriod();\r\n    }\r\n\r\n    /**\r\n     * Batch refreshes pools. Used in case we have tons of pools but are past the gas limit.\r\n     */\r\n    function batchRefreshPools(address[] memory _stakingTokens) public {\r\n        require(\r\n            _stakingTokens.length <= 20,\r\n            \"PoolManager: can only refresh 20 pools at a time\"\r\n        );\r\n        for (uint256 i = 0; i < _stakingTokens.length; i++) {\r\n            refreshPool(_stakingTokens[i]);\r\n        }\r\n    }\r\n\r\n    modifier notInitializingPeriod {\r\n        require(\r\n            !currentPeriod.isInitializing,\r\n            \"PoolManager: current period is still initializing\"\r\n        );\r\n        _;\r\n    }\r\n\r\n    modifier initializingPeriod {\r\n        require(\r\n            currentPeriod.isInitializing,\r\n            \"PoolManager: current period must be initializing\"\r\n        );\r\n        _;\r\n    }\r\n\r\n    // ---------\r\n    // Proxy methods for StakingRewards.sol\r\n    // ---------\r\n\r\n    function recoverERC20(\r\n        address _pool,\r\n        address _tokenAddress,\r\n        uint256 _tokenAmount\r\n    ) external onlyOperator {\r\n        // Allow the operator to recover any ERC20 tokens stuck in the pool.\r\n        StakingRewards(_pool).recoverERC20(_tokenAddress, _tokenAmount);\r\n        IERC20(_tokenAddress).safeTransfer(msg.sender, _tokenAmount);\r\n    }\r\n}\r\n",
  "sourcePath": "C:/Users/xavie/OneDrive/Desktop/TradeGen/Github/tradegen-farming/contracts/distribution/PoolManager.sol",
  "compiler": {
    "name": "solc",
    "version": "0.8.3+commit.8d00100c.Emscripten.clang"
  },
  "schemaVersion": "3.4.1",
  "updatedAt": "2021-07-12T00:22:57.864Z",
  "devdoc": {
    "kind": "dev",
    "methods": {
      "owner()": {
        "details": "Returns the address of the current owner."
      },
      "renounceOwnership()": {
        "details": "Leaves the contract without owner. It will not be possible to call `onlyOwner` functions anymore. Can only be called by the current owner. NOTE: Renouncing ownership will leave the contract without an owner, thereby removing any functionality that is only available to the owner."
      },
      "transferOwnership(address)": {
        "details": "Transfers ownership of the contract to a new account (`newOwner`). Can only be called by the current owner."
      }
    },
    "version": 1
  },
  "userdoc": {
    "kind": "user",
    "methods": {
      "batchRefreshPools(address[])": {
        "notice": "Batch refreshes pools. Used in case we have tons of pools but are past the gas limit."
      },
      "batchSetWeight(address[],uint256[])": {
        "notice": "Sets the weight of multiple pools at the same time."
      },
      "beginInitializePeriod()": {
        "notice": "Starts the next period with the allocation."
      },
      "commitInitializePeriod()": {
        "notice": "Commits the next period, allowing the next wave of tokens to be distributed."
      },
      "computeAmountForPeriod(uint256)": {
        "notice": "Computes the amount of rewards to be distributed for a given period."
      },
      "computeAmountForPool(address,uint256)": {
        "notice": "Computes the amount of tokens a pool is expected to earn for a given period."
      },
      "computePoolShare(address,uint256)": {
        "notice": "Computes the amount of tokens a pool is expected to earn for a given total number of tokens."
      },
      "initializePeriod(address[])": {
        "notice": "Initialize a period in one transaction. This function may not work in one block if there are a lot of pools."
      },
      "refreshPool(address)": {
        "notice": "Updates a pool's rewards."
      },
      "setWeight(address,uint256)": {
        "notice": "Sets the weight of a pool's rewards. If the pool doesn't exist, it creates the staking pool contract and adds it to the list of pools."
      }
    },
    "notice": "Manages liquidity mining pools. To set up (owner only): 1. Set weights of the pools using `setWeight`. To distribute rewards (operator only): Either: (recommended)   2. Call `initializePeriod` for every pool part of the period. Or: (if past the block gas limit)   2. Start the next period with a specified number of reward tokens using `beginInitializePeriod`.   3. Call `createOrRefreshPool` for every pool part of the period.   4. Complete the period initialization using `commitInitializePeriod`.",
    "version": 1
  }
}