{
  "contractName": "ReleaseEscrow",
  "abi": [
    {
      "inputs": [
        {
          "internalType": "address",
          "name": "beneficiary_",
          "type": "address"
        },
        {
          "internalType": "address",
          "name": "rewardToken_",
          "type": "address"
        },
        {
          "internalType": "address",
          "name": "schedule_",
          "type": "address"
        },
        {
          "internalType": "uint256",
          "name": "startTime_",
          "type": "uint256"
        }
      ],
      "stateMutability": "nonpayable",
      "type": "constructor"
    },
    {
      "inputs": [],
      "name": "beneficiary",
      "outputs": [
        {
          "internalType": "address",
          "name": "",
          "type": "address"
        }
      ],
      "stateMutability": "view",
      "type": "function"
    },
    {
      "inputs": [],
      "name": "numberOfWeeksWithdrawn",
      "outputs": [
        {
          "internalType": "uint256",
          "name": "",
          "type": "uint256"
        }
      ],
      "stateMutability": "view",
      "type": "function"
    },
    {
      "inputs": [],
      "name": "rewardToken",
      "outputs": [
        {
          "internalType": "contract IERC20",
          "name": "",
          "type": "address"
        }
      ],
      "stateMutability": "view",
      "type": "function"
    },
    {
      "inputs": [],
      "name": "schedule",
      "outputs": [
        {
          "internalType": "contract IReleaseSchedule",
          "name": "",
          "type": "address"
        }
      ],
      "stateMutability": "view",
      "type": "function"
    },
    {
      "inputs": [],
      "name": "startTime",
      "outputs": [
        {
          "internalType": "uint256",
          "name": "",
          "type": "uint256"
        }
      ],
      "stateMutability": "view",
      "type": "function"
    },
    {
      "inputs": [],
      "name": "collectDust",
      "outputs": [],
      "stateMutability": "nonpayable",
      "type": "function"
    },
    {
      "inputs": [],
      "name": "hasStarted",
      "outputs": [
        {
          "internalType": "bool",
          "name": "",
          "type": "bool"
        }
      ],
      "stateMutability": "view",
      "type": "function"
    },
    {
      "inputs": [],
      "name": "currentWeekIndex",
      "outputs": [
        {
          "internalType": "uint256",
          "name": "",
          "type": "uint256"
        }
      ],
      "stateMutability": "view",
      "type": "function"
    },
    {
      "inputs": [
        {
          "internalType": "uint256",
          "name": "_latestWeek",
          "type": "uint256"
        }
      ],
      "name": "withdraw",
      "outputs": [],
      "stateMutability": "nonpayable",
      "type": "function"
    }
  ],
  "bytecode": "0x6101006040523480156200001257600080fd5b506040516200189d3803806200189d83398181016040528101906200003891906200016a565b60016000819055508373ffffffffffffffffffffffffffffffffffffffff1660c08173ffffffffffffffffffffffffffffffffffffffff1660601b815250508273ffffffffffffffffffffffffffffffffffffffff1660a08173ffffffffffffffffffffffffffffffffffffffff1660601b815250508173ffffffffffffffffffffffffffffffffffffffff1660e08173ffffffffffffffffffffffffffffffffffffffff1660601b815250504281116200012a576040517f08c379a00000000000000000000000000000000000000000000000000000000081526004016200012190620001fd565b60405180910390fd5b806080818152505050505050620002f1565b6000815190506200014d81620002bd565b92915050565b6000815190506200016481620002d7565b92915050565b600080600080608085870312156200018157600080fd5b600062000191878288016200013c565b9450506020620001a4878288016200013c565b9350506040620001b7878288016200013c565b9250506060620001ca8782880162000153565b91505092959194509250565b6000620001e5602f836200021f565b9150620001f2826200026e565b604082019050919050565b600060208201905081810360008301526200021881620001d6565b9050919050565b600082825260208201905092915050565b60006200023d8262000244565b9050919050565b600073ffffffffffffffffffffffffffffffffffffffff82169050919050565b6000819050919050565b7f52656c65617365457363726f773a2073746172742074696d65206d757374206260008201527f6520696e20746865206675747572650000000000000000000000000000000000602082015250565b620002c88162000230565b8114620002d457600080fd5b50565b620002e28162000264565b8114620002ee57600080fd5b50565b60805160a05160601c60c05160601c60e05160601c61152a620003736000396000818161031a01528181610546015261076f0152600081816103e701528181610463015261062b0152600081816104090152818161064c015281816106f5015261081b01526000818161048a0152818161074501526107e0015261152a6000f3fe608060405234801561001057600080fd5b50600436106100935760003560e01c806378e979251161006657806378e97925146100fa5780639cb5ff7014610118578063b0604a2614610136578063b3d1f73714610154578063f7c618c11461017257610093565b80632e1a7d4d1461009857806338af3eed146100b457806344691f7e146100d257806377f3e5d6146100f0575b600080fd5b6100b260048036038101906100ad9190610b98565b610190565b005b6100bc610461565b6040516100c99190610df1565b60405180910390f35b6100da610485565b6040516100e79190610e35565b60405180910390f35b6100f86104af565b005b610102610743565b60405161010f9190610fc8565b60405180910390f35b610120610767565b60405161012d9190610fc8565b60405180910390f35b61013e61076d565b60405161014b9190610e6b565b60405180910390f35b61015c610791565b6040516101699190610fc8565b60405180910390f35b61017a610819565b6040516101879190610e50565b60405180910390f35b610198610485565b6101d7576040517f08c379a00000000000000000000000000000000000000000000000000000000081526004016101ce90610ee8565b60405180910390fd5b6002600054141561021d576040517f08c379a000000000000000000000000000000000000000000000000000000000815260040161021490610fa8565b60405180910390fd5b600260008190555060008111610268576040517f08c379a000000000000000000000000000000000000000000000000000000000815260040161025f90610ec8565b60405180910390fd5b60006002610274610791565b61027e9190611015565b9050808211156102c3576040517f08c379a00000000000000000000000000000000000000000000000000000000081526004016102ba90610f08565b60405180910390fd5b6001548211610307576040517f08c379a00000000000000000000000000000000000000000000000000000000081526004016102fe90610f68565b60405180910390fd5b60008060015490505b838110156103e1577f000000000000000000000000000000000000000000000000000000000000000073ffffffffffffffffffffffffffffffffffffffff16636fc313e7826040518263ffffffff1660e01b81526004016103719190610fc8565b60206040518083038186803b15801561038957600080fd5b505afa15801561039d573d6000803e3d6000fd5b505050506040513d601f19601f820116820180604052508101906103c19190610bc1565b826103cc9190611015565b915080806103d990611193565b915050610310565b5061044d7f0000000000000000000000000000000000000000000000000000000000000000827f000000000000000000000000000000000000000000000000000000000000000073ffffffffffffffffffffffffffffffffffffffff1661083d9092919063ffffffff16565b826001819055505050600160008190555050565b7f000000000000000000000000000000000000000000000000000000000000000081565b6000427f000000000000000000000000000000000000000000000000000000000000000010905090565b6104b7610485565b6104f6576040517f08c379a00000000000000000000000000000000000000000000000000000000081526004016104ed90610ee8565b60405180910390fd5b6002600054141561053c576040517f08c379a000000000000000000000000000000000000000000000000000000000815260040161053390610fa8565b60405180910390fd5b60026000819055507f000000000000000000000000000000000000000000000000000000000000000073ffffffffffffffffffffffffffffffffffffffff1663fea708f66040518163ffffffff1660e01b815260040160206040518083038186803b1580156105aa57600080fd5b505afa1580156105be573d6000803e3d6000fd5b505050506040513d601f19601f820116820180604052508101906105e29190610bc1565b6001541015610626576040517f08c379a000000000000000000000000000000000000000000000000000000000815260040161061d90610f28565b60405180910390fd5b6107397f00000000000000000000000000000000000000000000000000000000000000007f000000000000000000000000000000000000000000000000000000000000000073ffffffffffffffffffffffffffffffffffffffff166370a08231306040518263ffffffff1660e01b81526004016106a39190610df1565b60206040518083038186803b1580156106bb57600080fd5b505afa1580156106cf573d6000803e3d6000fd5b505050506040513d601f19601f820116820180604052508101906106f39190610bc1565b7f000000000000000000000000000000000000000000000000000000000000000073ffffffffffffffffffffffffffffffffffffffff1661083d9092919063ffffffff16565b6001600081905550565b7f000000000000000000000000000000000000000000000000000000000000000081565b60015481565b7f000000000000000000000000000000000000000000000000000000000000000081565b600061079b610485565b6107da576040517f08c379a00000000000000000000000000000000000000000000000000000000081526004016107d190610ee8565b60405180910390fd5b62093a807f00000000000000000000000000000000000000000000000000000000000000004261080a919061109c565b610814919061106b565b905090565b7f000000000000000000000000000000000000000000000000000000000000000081565b6108be8363a9059cbb60e01b848460405160240161085c929190610e0c565b604051602081830303815290604052907bffffffffffffffffffffffffffffffffffffffffffffffffffffffff19166020820180517bffffffffffffffffffffffffffffffffffffffffffffffffffffffff83818316178352505050506108c3565b505050565b6000610925826040518060400160405280602081526020017f5361666545524332303a206c6f772d6c6576656c2063616c6c206661696c65648152508573ffffffffffffffffffffffffffffffffffffffff1661098a9092919063ffffffff16565b905060008151111561098557808060200190518101906109459190610b6f565b610984576040517f08c379a000000000000000000000000000000000000000000000000000000000815260040161097b90610f88565b60405180910390fd5b5b505050565b606061099984846000856109a2565b90509392505050565b6060824710156109e7576040517f08c379a00000000000000000000000000000000000000000000000000000000081526004016109de90610ea8565b60405180910390fd5b6109f085610ab6565b610a2f576040517f08c379a0000000000000000000000000000000000000000000000000000000008152600401610a2690610f48565b60405180910390fd5b6000808673ffffffffffffffffffffffffffffffffffffffff168587604051610a589190610dda565b60006040518083038185875af1925050503d8060008114610a95576040519150601f19603f3d011682016040523d82523d6000602084013e610a9a565b606091505b5091509150610aaa828286610ac9565b92505050949350505050565b600080823b905060008111915050919050565b60608315610ad957829050610b29565b600083511115610aec5782518084602001fd5b816040517f08c379a0000000000000000000000000000000000000000000000000000000008152600401610b209190610e86565b60405180910390fd5b9392505050565b600081519050610b3f816114c6565b92915050565b600081359050610b54816114dd565b92915050565b600081519050610b69816114dd565b92915050565b600060208284031215610b8157600080fd5b6000610b8f84828501610b30565b91505092915050565b600060208284031215610baa57600080fd5b6000610bb884828501610b45565b91505092915050565b600060208284031215610bd357600080fd5b6000610be184828501610b5a565b91505092915050565b610bf3816110d0565b82525050565b610c02816110e2565b82525050565b6000610c1382610fe3565b610c1d8185610ff9565b9350610c2d818560208601611160565b80840191505092915050565b610c4281611118565b82525050565b610c518161113c565b82525050565b6000610c6282610fee565b610c6c8185611004565b9350610c7c818560208601611160565b610c858161123a565b840191505092915050565b6000610c9d602683611004565b9150610ca88261124b565b604082019050919050565b6000610cc0602a83611004565b9150610ccb8261129a565b604082019050919050565b6000610ce3602a83611004565b9150610cee826112e9565b604082019050919050565b6000610d06602683611004565b9150610d1182611338565b604082019050919050565b6000610d29603983611004565b9150610d3482611387565b604082019050919050565b6000610d4c601d83611004565b9150610d57826113d6565b602082019050919050565b6000610d6f603683611004565b9150610d7a826113ff565b604082019050919050565b6000610d92602a83611004565b9150610d9d8261144e565b604082019050919050565b6000610db5601f83611004565b9150610dc08261149d565b602082019050919050565b610dd48161110e565b82525050565b6000610de68284610c08565b915081905092915050565b6000602082019050610e066000830184610bea565b92915050565b6000604082019050610e216000830185610bea565b610e2e6020830184610dcb565b9392505050565b6000602082019050610e4a6000830184610bf9565b92915050565b6000602082019050610e656000830184610c39565b92915050565b6000602082019050610e806000830184610c48565b92915050565b60006020820190508181036000830152610ea08184610c57565b905092915050565b60006020820190508181036000830152610ec181610c90565b9050919050565b60006020820190508181036000830152610ee181610cb3565b9050919050565b60006020820190508181036000830152610f0181610cd6565b9050919050565b60006020820190508181036000830152610f2181610cf9565b9050919050565b60006020820190508181036000830152610f4181610d1c565b9050919050565b60006020820190508181036000830152610f6181610d3f565b9050919050565b60006020820190508181036000830152610f8181610d62565b9050919050565b60006020820190508181036000830152610fa181610d85565b9050919050565b60006020820190508181036000830152610fc181610da8565b9050919050565b6000602082019050610fdd6000830184610dcb565b92915050565b600081519050919050565b600081519050919050565b600081905092915050565b600082825260208201905092915050565b60006110208261110e565b915061102b8361110e565b9250827fffffffffffffffffffffffffffffffffffffffffffffffffffffffffffffffff038211156110605761105f6111dc565b5b828201905092915050565b60006110768261110e565b91506110818361110e565b9250826110915761109061120b565b5b828204905092915050565b60006110a78261110e565b91506110b28361110e565b9250828210156110c5576110c46111dc565b5b828203905092915050565b60006110db826110ee565b9050919050565b60008115159050919050565b600073ffffffffffffffffffffffffffffffffffffffff82169050919050565b6000819050919050565b60006111238261112a565b9050919050565b6000611135826110ee565b9050919050565b60006111478261114e565b9050919050565b6000611159826110ee565b9050919050565b60005b8381101561117e578082015181840152602081019050611163565b8381111561118d576000848401525b50505050565b600061119e8261110e565b91507fffffffffffffffffffffffffffffffffffffffffffffffffffffffffffffffff8214156111d1576111d06111dc565b5b600182019050919050565b7f4e487b7100000000000000000000000000000000000000000000000000000000600052601160045260246000fd5b7f4e487b7100000000000000000000000000000000000000000000000000000000600052601260045260246000fd5b6000601f19601f8301169050919050565b7f416464726573733a20696e73756666696369656e742062616c616e636520666f60008201527f722063616c6c0000000000000000000000000000000000000000000000000000602082015250565b7f52656c65617365457363726f773a207765656b206d757374206265206772656160008201527f746572207468616e203000000000000000000000000000000000000000000000602082015250565b7f52656c65617365457363726f773a2072656c6561736520686173206e6f74207360008201527f7461727465642079657400000000000000000000000000000000000000000000602082015250565b7f52656c65617365457363726f773a206c6174657374207765656b20697320746f60008201527f6f206c6174650000000000000000000000000000000000000000000000000000602082015250565b7f52656c65617365457363726f773a206e6f7420616c6c206d696e696e6720726560008201527f77617264732068617665206265656e2077697468647261776e00000000000000602082015250565b7f416464726573733a2063616c6c20746f206e6f6e2d636f6e7472616374000000600082015250565b7f52656c65617365457363726f773a2074686f7365207765656b7320686176652060008201527f616c7265616479206265656e2077697468647261776e00000000000000000000602082015250565b7f5361666545524332303a204552433230206f7065726174696f6e20646964206e60008201527f6f74207375636365656400000000000000000000000000000000000000000000602082015250565b7f5265656e7472616e637947756172643a207265656e7472616e742063616c6c00600082015250565b6114cf816110e2565b81146114da57600080fd5b50565b6114e68161110e565b81146114f157600080fd5b5056fea26469706673582212207c12c87eca6c179864a2ede85d7f73990eb5defcbcf9bd2550e494b1b9135ce364736f6c63430008030033",
  "immutableReferences": {
    "1211": [
      {
        "length": 32,
        "start": 1162
      },
      {
        "length": 32,
        "start": 1861
      },
      {
        "length": 32,
        "start": 2016
      }
    ],
    "1214": [
      {
        "length": 32,
        "start": 1033
      },
      {
        "length": 32,
        "start": 1612
      },
      {
        "length": 32,
        "start": 1781
      },
      {
        "length": 32,
        "start": 2075
      }
    ],
    "1216": [
      {
        "length": 32,
        "start": 999
      },
      {
        "length": 32,
        "start": 1123
      },
      {
        "length": 32,
        "start": 1579
      }
    ],
    "1219": [
      {
        "length": 32,
        "start": 794
      },
      {
        "length": 32,
        "start": 1350
      },
      {
        "length": 32,
        "start": 1903
      }
    ]
  },
  "source": "// SPDX-License-Identifier: MIT\r\n\r\npragma solidity ^0.8.3;\r\n\r\nimport \"../../openzeppelin-solidity/contracts/SafeERC20.sol\";\r\nimport \"../../openzeppelin-solidity/contracts/ReentrancyGuard.sol\";\r\nimport \"../../interfaces/IReleaseSchedule.sol\";\r\n\r\n/**\r\n * Escrow to release tokens according to a schedule.\r\n */\r\ncontract ReleaseEscrow is ReentrancyGuard {\r\n    using SafeERC20 for IERC20;\r\n\r\n    // When the release starts.\r\n    uint256 public immutable startTime;\r\n\r\n    // Reward token contract address\r\n    IERC20 public immutable rewardToken;\r\n\r\n    // Where the funds go to.\r\n    address public immutable beneficiary;\r\n\r\n    // Schedule for release of tokens.\r\n    IReleaseSchedule public immutable schedule;\r\n\r\n    // The number of weeks that have been withdrawn from the escrow.\r\n    uint256 public numberOfWeeksWithdrawn;\r\n\r\n    constructor(\r\n        address beneficiary_,\r\n        address rewardToken_,\r\n        address schedule_,\r\n        uint256 startTime_\r\n    ) {\r\n        beneficiary = beneficiary_;\r\n        rewardToken = IERC20(rewardToken_);\r\n        schedule = IReleaseSchedule(schedule_);\r\n        require(\r\n            // solhint-disable-next-line not-rely-on-time\r\n            startTime_ > block.timestamp,\r\n            \"ReleaseEscrow: start time must be in the future\"\r\n        );\r\n        startTime = startTime_;\r\n    }\r\n\r\n    /**\r\n     * Exit function to collect all remaining tokens, in the case of rounding errors.\r\n     */\r\n    function collectDust() external started nonReentrant {\r\n        require(\r\n            numberOfWeeksWithdrawn >= schedule.totalPeriods(),\r\n            \"ReleaseEscrow: not all mining rewards have been withdrawn\"\r\n        );\r\n        rewardToken.safeTransfer(\r\n            beneficiary,\r\n            rewardToken.balanceOf(address(this))\r\n        );\r\n    }\r\n\r\n    /**\r\n     * Returns true if release has already started.\r\n     */\r\n    function hasStarted() public view returns (bool) {\r\n        // solhint-disable-next-line not-rely-on-time\r\n        return startTime < block.timestamp;\r\n    }\r\n\r\n    modifier started {\r\n        require(hasStarted(), \"ReleaseEscrow: release has not started yet\");\r\n        _;\r\n    }\r\n\r\n    /**\r\n     * The current week in the release schedule. Starts from 0.\r\n     */\r\n    function currentWeekIndex() public view started returns (uint256) {\r\n        // solhint-disable-next-line not-rely-on-time\r\n        return (block.timestamp - startTime) / (1 weeks);\r\n    }\r\n\r\n    /**\r\n     * Withdraws tokens based on the weeks elapsed.\r\n     * `_latestWeek` can be specified so execution is bounded.\r\n     * Up to two weeks worth of tokens may be withdrawn ahead of time. This gives the protocol time\r\n     * to move tokens into the right places in the preceding week.\r\n     * @param _latestWeek The week to withdraw up to. I.e. if \"1\", this will withdraw the funds of week 0.\r\n     */\r\n    function withdraw(uint256 _latestWeek) external started nonReentrant {\r\n        require(_latestWeek > 0, \"ReleaseEscrow: week must be greater than 0\");\r\n        // Up to two weeks worth of tokens may be withdrawn in advance.\r\n        // i.e. the current week and the next week.\r\n        uint256 latestPossibleWeek = currentWeekIndex() + 2;\r\n        require(\r\n            _latestWeek <= latestPossibleWeek,\r\n            \"ReleaseEscrow: latest week is too late\"\r\n        );\r\n        require(\r\n            _latestWeek > numberOfWeeksWithdrawn,\r\n            \"ReleaseEscrow: those weeks have already been withdrawn\"\r\n        );\r\n        uint256 totalTransfer;\r\n        for (uint256 i = numberOfWeeksWithdrawn; i < _latestWeek; i++) {\r\n            // Get tokens for the next week, so this is \"i\"\r\n            // That is; If 1 week has been withdrawn already, we need to withdraw week 1 next.\r\n            // Because that 1 week was week 0.\r\n            totalTransfer += schedule.getTokensForPeriod(i);\r\n        }\r\n        rewardToken.safeTransfer(beneficiary, totalTransfer);\r\n        numberOfWeeksWithdrawn = _latestWeek;\r\n    }\r\n}\r\n",
  "sourcePath": "C:/Users/xavie/OneDrive/Desktop/TradeGen/Github/tradegen-farming/contracts/distribution/release/ReleaseEscrow.sol",
  "compiler": {
    "name": "solc",
    "version": "0.8.3+commit.8d00100c.Emscripten.clang"
  },
  "schemaVersion": "3.4.1",
  "updatedAt": "2021-07-12T00:22:57.891Z",
  "devdoc": {
    "kind": "dev",
    "methods": {
      "withdraw(uint256)": {
        "params": {
          "_latestWeek": "The week to withdraw up to. I.e. if \"1\", this will withdraw the funds of week 0."
        }
      }
    },
    "version": 1
  },
  "userdoc": {
    "kind": "user",
    "methods": {
      "collectDust()": {
        "notice": "Exit function to collect all remaining tokens, in the case of rounding errors."
      },
      "currentWeekIndex()": {
        "notice": "The current week in the release schedule. Starts from 0."
      },
      "hasStarted()": {
        "notice": "Returns true if release has already started."
      },
      "withdraw(uint256)": {
        "notice": "Withdraws tokens based on the weeks elapsed. `_latestWeek` can be specified so execution is bounded. Up to two weeks worth of tokens may be withdrawn ahead of time. This gives the protocol time to move tokens into the right places in the preceding week."
      }
    },
    "notice": "Escrow to release tokens according to a schedule.",
    "version": 1
  }
}