{
  "contractName": "TokenAllocator",
  "abi": [
    {
      "inputs": [
        {
          "internalType": "string",
          "name": "name_",
          "type": "string"
        },
        {
          "internalType": "string",
          "name": "symbol_",
          "type": "string"
        },
        {
          "internalType": "uint8",
          "name": "decimals_",
          "type": "uint8"
        },
        {
          "internalType": "address",
          "name": "owner_",
          "type": "address"
        },
        {
          "internalType": "address",
          "name": "token_",
          "type": "address"
        }
      ],
      "stateMutability": "nonpayable",
      "type": "constructor"
    },
    {
      "anonymous": false,
      "inputs": [
        {
          "indexed": true,
          "internalType": "address",
          "name": "owner",
          "type": "address"
        },
        {
          "indexed": false,
          "internalType": "uint256",
          "name": "previous",
          "type": "uint256"
        },
        {
          "indexed": false,
          "internalType": "uint256",
          "name": "next",
          "type": "uint256"
        },
        {
          "indexed": false,
          "internalType": "uint256",
          "name": "totalSupply",
          "type": "uint256"
        }
      ],
      "name": "BalanceUpdated",
      "type": "event"
    },
    {
      "anonymous": false,
      "inputs": [],
      "name": "BeneficiariesLocked",
      "type": "event"
    },
    {
      "anonymous": false,
      "inputs": [
        {
          "indexed": true,
          "internalType": "address",
          "name": "beneficiary",
          "type": "address"
        },
        {
          "indexed": false,
          "internalType": "uint256",
          "name": "shares",
          "type": "uint256"
        }
      ],
      "name": "BeneficiaryAdded",
      "type": "event"
    },
    {
      "anonymous": false,
      "inputs": [
        {
          "indexed": true,
          "internalType": "address",
          "name": "previousOwner",
          "type": "address"
        },
        {
          "indexed": true,
          "internalType": "address",
          "name": "newOwner",
          "type": "address"
        }
      ],
      "name": "OwnershipTransferred",
      "type": "event"
    },
    {
      "anonymous": false,
      "inputs": [
        {
          "indexed": true,
          "internalType": "address",
          "name": "beneficiary",
          "type": "address"
        },
        {
          "indexed": false,
          "internalType": "uint256",
          "name": "amount",
          "type": "uint256"
        }
      ],
      "name": "Redeemed",
      "type": "event"
    },
    {
      "inputs": [],
      "name": "balanceAfterLastRedemption",
      "outputs": [
        {
          "internalType": "uint256",
          "name": "",
          "type": "uint256"
        }
      ],
      "stateMutability": "view",
      "type": "function"
    },
    {
      "inputs": [],
      "name": "decimals",
      "outputs": [
        {
          "internalType": "uint8",
          "name": "",
          "type": "uint8"
        }
      ],
      "stateMutability": "view",
      "type": "function"
    },
    {
      "inputs": [],
      "name": "isLocked",
      "outputs": [
        {
          "internalType": "bool",
          "name": "",
          "type": "bool"
        }
      ],
      "stateMutability": "view",
      "type": "function"
    },
    {
      "inputs": [],
      "name": "name",
      "outputs": [
        {
          "internalType": "string",
          "name": "",
          "type": "string"
        }
      ],
      "stateMutability": "view",
      "type": "function"
    },
    {
      "inputs": [],
      "name": "owner",
      "outputs": [
        {
          "internalType": "address",
          "name": "",
          "type": "address"
        }
      ],
      "stateMutability": "view",
      "type": "function"
    },
    {
      "inputs": [],
      "name": "renounceOwnership",
      "outputs": [],
      "stateMutability": "nonpayable",
      "type": "function"
    },
    {
      "inputs": [],
      "name": "symbol",
      "outputs": [
        {
          "internalType": "string",
          "name": "",
          "type": "string"
        }
      ],
      "stateMutability": "view",
      "type": "function"
    },
    {
      "inputs": [],
      "name": "totalTokensReceived",
      "outputs": [
        {
          "internalType": "uint256",
          "name": "",
          "type": "uint256"
        }
      ],
      "stateMutability": "view",
      "type": "function"
    },
    {
      "inputs": [
        {
          "internalType": "address",
          "name": "",
          "type": "address"
        }
      ],
      "name": "totalTokensReceivedAtLastRedemption",
      "outputs": [
        {
          "internalType": "uint256",
          "name": "",
          "type": "uint256"
        }
      ],
      "stateMutability": "view",
      "type": "function"
    },
    {
      "inputs": [
        {
          "internalType": "address",
          "name": "newOwner",
          "type": "address"
        }
      ],
      "name": "transferOwnership",
      "outputs": [],
      "stateMutability": "nonpayable",
      "type": "function"
    },
    {
      "inputs": [],
      "name": "token",
      "outputs": [
        {
          "internalType": "address",
          "name": "",
          "type": "address"
        }
      ],
      "stateMutability": "view",
      "type": "function"
    },
    {
      "inputs": [],
      "name": "totalSupply",
      "outputs": [
        {
          "internalType": "uint256",
          "name": "",
          "type": "uint256"
        }
      ],
      "stateMutability": "view",
      "type": "function"
    },
    {
      "inputs": [
        {
          "internalType": "address",
          "name": "_account",
          "type": "address"
        }
      ],
      "name": "balanceOf",
      "outputs": [
        {
          "internalType": "uint256",
          "name": "",
          "type": "uint256"
        }
      ],
      "stateMutability": "view",
      "type": "function"
    },
    {
      "inputs": [
        {
          "internalType": "address",
          "name": "_address",
          "type": "address"
        },
        {
          "internalType": "uint256",
          "name": "_shares",
          "type": "uint256"
        }
      ],
      "name": "addBeneficiary",
      "outputs": [],
      "stateMutability": "nonpayable",
      "type": "function"
    },
    {
      "inputs": [],
      "name": "lockBeneficiaries",
      "outputs": [],
      "stateMutability": "nonpayable",
      "type": "function"
    },
    {
      "inputs": [
        {
          "internalType": "address",
          "name": "_account",
          "type": "address"
        }
      ],
      "name": "earned",
      "outputs": [
        {
          "internalType": "uint256",
          "name": "amount",
          "type": "uint256"
        }
      ],
      "stateMutability": "view",
      "type": "function"
    },
    {
      "inputs": [],
      "name": "getReward",
      "outputs": [
        {
          "internalType": "uint256",
          "name": "",
          "type": "uint256"
        }
      ],
      "stateMutability": "nonpayable",
      "type": "function"
    }
  ],
  "bytecode": "0x60c06040523480156200001157600080fd5b5060405162002942380380620029428339818101604052810190620000379190620004cb565b84848460006200004c6200018b60201b60201c565b9050806000806101000a81548173ffffffffffffffffffffffffffffffffffffffff021916908373ffffffffffffffffffffffffffffffffffffffff1602179055508073ffffffffffffffffffffffffffffffffffffffff16600073ffffffffffffffffffffffffffffffffffffffff167f8be0079c531659141344cd1fd0a4f28419497f9722a3daafe3b4186f6b6457e060405160405180910390a3508260019080519060200190620001029291906200037b565b5081600290805190602001906200011b9291906200037b565b508060ff1660808160ff1660f81b81525050505050600160058190555062000149826200019360201b60201c565b8073ffffffffffffffffffffffffffffffffffffffff1660a08173ffffffffffffffffffffffffffffffffffffffff1660601b8152505050505050506200087f565b600033905090565b620001a36200018b60201b60201c565b73ffffffffffffffffffffffffffffffffffffffff16620001c96200035260201b60201c565b73ffffffffffffffffffffffffffffffffffffffff161462000222576040517f08c379a00000000000000000000000000000000000000000000000000000000081526004016200021990620005ef565b60405180910390fd5b600073ffffffffffffffffffffffffffffffffffffffff168173ffffffffffffffffffffffffffffffffffffffff16141562000295576040517f08c379a00000000000000000000000000000000000000000000000000000000081526004016200028c90620005cd565b60405180910390fd5b8073ffffffffffffffffffffffffffffffffffffffff1660008054906101000a900473ffffffffffffffffffffffffffffffffffffffff1673ffffffffffffffffffffffffffffffffffffffff167f8be0079c531659141344cd1fd0a4f28419497f9722a3daafe3b4186f6b6457e060405160405180910390a3806000806101000a81548173ffffffffffffffffffffffffffffffffffffffff021916908373ffffffffffffffffffffffffffffffffffffffff16021790555050565b60008060009054906101000a900473ffffffffffffffffffffffffffffffffffffffff16905090565b8280546200038990620006f8565b90600052602060002090601f016020900481019282620003ad5760008555620003f9565b82601f10620003c857805160ff1916838001178555620003f9565b82800160010185558215620003f9579182015b82811115620003f8578251825591602001919060010190620003db565b5b5090506200040891906200040c565b5090565b5b80821115620004275760008160009055506001016200040d565b5090565b6000620004426200043c846200063a565b62000611565b9050828152602081018484840111156200045b57600080fd5b62000468848285620006c2565b509392505050565b60008151905062000481816200084b565b92915050565b600082601f8301126200049957600080fd5b8151620004ab8482602086016200042b565b91505092915050565b600081519050620004c58162000865565b92915050565b600080600080600060a08688031215620004e457600080fd5b600086015167ffffffffffffffff811115620004ff57600080fd5b6200050d8882890162000487565b955050602086015167ffffffffffffffff8111156200052b57600080fd5b620005398882890162000487565b94505060406200054c88828901620004b4565b93505060606200055f8882890162000470565b9250506080620005728882890162000470565b9150509295509295909350565b60006200058e60268362000670565b91506200059b82620007d3565b604082019050919050565b6000620005b560208362000670565b9150620005c28262000822565b602082019050919050565b60006020820190508181036000830152620005e8816200057f565b9050919050565b600060208201905081810360008301526200060a81620005a6565b9050919050565b60006200061d62000630565b90506200062b82826200072e565b919050565b6000604051905090565b600067ffffffffffffffff82111562000658576200065762000793565b5b6200066382620007c2565b9050602081019050919050565b600082825260208201905092915050565b60006200068e8262000695565b9050919050565b600073ffffffffffffffffffffffffffffffffffffffff82169050919050565b600060ff82169050919050565b60005b83811015620006e2578082015181840152602081019050620006c5565b83811115620006f2576000848401525b50505050565b600060028204905060018216806200071157607f821691505b6020821081141562000728576200072762000764565b5b50919050565b6200073982620007c2565b810181811067ffffffffffffffff821117156200075b576200075a62000793565b5b80604052505050565b7f4e487b7100000000000000000000000000000000000000000000000000000000600052602260045260246000fd5b7f4e487b7100000000000000000000000000000000000000000000000000000000600052604160045260246000fd5b6000601f19601f8301169050919050565b7f4f776e61626c653a206e6577206f776e657220697320746865207a65726f206160008201527f6464726573730000000000000000000000000000000000000000000000000000602082015250565b7f4f776e61626c653a2063616c6c6572206973206e6f7420746865206f776e6572600082015250565b620008568162000681565b81146200086257600080fd5b50565b6200087081620006b5565b81146200087c57600080fd5b50565b60805160f81c60a05160601c612082620008c06000396000818161048f015281816104d501528181610d170152610de1015260006103d101526120826000f3fe608060405234801561001057600080fd5b506004361061010a5760003560e01c8063715018a6116100a257806396074e701161007157806396074e7014610299578063a4e2d634146102b5578063ea72cdc5146102d3578063f2fde38b146102dd578063fc0c546a146102f95761010a565b8063715018a614610235578063715863831461023f5780638da5cb5b1461025d57806395d89b411461027b5761010a565b80633aedb48f116100de5780633aedb48f146101995780633d18b912146101c95780634bd34f5c146101e757806370a08231146102055761010a565b80628cc2621461010f57806306fdde031461013f57806318160ddd1461015d578063313ce5671461017b575b600080fd5b610129600480360381019061012491906114a0565b610317565b60405161013691906119b9565b60405180910390f35b61014761032c565b6040516101549190611817565b60405180910390f35b6101656103be565b60405161017291906119b9565b60405180910390f35b6101836103cd565b6040516101909190611a0b565b60405180910390f35b6101b360048036038101906101ae91906114a0565b6103f5565b6040516101c091906119b9565b60405180910390f35b6101d161040d565b6040516101de91906119b9565b60405180910390f35b6101ef610627565b6040516101fc91906119b9565b60405180910390f35b61021f600480360381019061021a91906114a0565b61062d565b60405161022c91906119b9565b60405180910390f35b61023d61063f565b005b610247610779565b60405161025491906119b9565b60405180910390f35b61026561077f565b60405161027291906117b8565b60405180910390f35b6102836107a8565b6040516102909190611817565b60405180910390f35b6102b360048036038101906102ae91906114c9565b61083a565b005b6102bd6109f0565b6040516102ca91906117fc565b60405180910390f35b6102db610a03565b005b6102f760048036038101906102f291906114a0565b610b6a565b005b610301610d13565b60405161030e91906117b8565b60405180910390f35b600061032282610d3b565b5080915050919050565b60606001805461033b90611bf5565b80601f016020809104026020016040519081016040528092919081815260200182805461036790611bf5565b80156103b45780601f10610389576101008083540402835291602001916103b4565b820191906000526020600020905b81548152906001019060200180831161039757829003601f168201915b5050505050905090565b60006103c8610f5f565b905090565b60007f0000000000000000000000000000000000000000000000000000000000000000905090565b60096020528060005260406000206000915090505481565b600060026005541415610455576040517f08c379a000000000000000000000000000000000000000000000000000000000815260040161044c90611999565b60405180910390fd5b600260058190555060008061046933610d3b565b9150915060008214156104815760009250505061061c565b806008819055506104d333837f000000000000000000000000000000000000000000000000000000000000000073ffffffffffffffffffffffffffffffffffffffff16610f699092919063ffffffff16565b7f000000000000000000000000000000000000000000000000000000000000000073ffffffffffffffffffffffffffffffffffffffff166370a08231306040518263ffffffff1660e01b815260040161052c91906117b8565b60206040518083038186803b15801561054457600080fd5b505afa158015610558573d6000803e3d6000fd5b505050506040513d601f19601f8201168201806040525081019061057c919061152e565b600781905550600854600960003373ffffffffffffffffffffffffffffffffffffffff1673ffffffffffffffffffffffffffffffffffffffff168152602001908152602001600020819055503373ffffffffffffffffffffffffffffffffffffffff167f4896181ff8f4543cc00db9fe9b6fb7e6f032b7eb772c72ab1ec1b4d2e03b93698360405161060e91906119b9565b60405180910390a281925050505b600160058190555090565b60075481565b600061063882610fef565b9050919050565b610647611038565b73ffffffffffffffffffffffffffffffffffffffff1661066561077f565b73ffffffffffffffffffffffffffffffffffffffff16146106bb576040517f08c379a00000000000000000000000000000000000000000000000000000000081526004016106b2906118b9565b60405180910390fd5b600073ffffffffffffffffffffffffffffffffffffffff1660008054906101000a900473ffffffffffffffffffffffffffffffffffffffff1673ffffffffffffffffffffffffffffffffffffffff167f8be0079c531659141344cd1fd0a4f28419497f9722a3daafe3b4186f6b6457e060405160405180910390a360008060006101000a81548173ffffffffffffffffffffffffffffffffffffffff021916908373ffffffffffffffffffffffffffffffffffffffff160217905550565b60085481565b60008060009054906101000a900473ffffffffffffffffffffffffffffffffffffffff16905090565b6060600280546107b790611bf5565b80601f01602080910402602001604051908101604052809291908181526020018280546107e390611bf5565b80156108305780601f1061080557610100808354040283529160200191610830565b820191906000526020600020905b81548152906001019060200180831161081357829003601f168201915b5050505050905090565b600660009054906101000a900460ff161561088a576040517f08c379a000000000000000000000000000000000000000000000000000000000815260040161088190611879565b60405180910390fd5b610892611038565b73ffffffffffffffffffffffffffffffffffffffff166108b061077f565b73ffffffffffffffffffffffffffffffffffffffff1614610906576040517f08c379a00000000000000000000000000000000000000000000000000000000081526004016108fd906118b9565b60405180910390fd5b60008111610949576040517f08c379a000000000000000000000000000000000000000000000000000000000815260040161094090611839565b60405180910390fd5b60006109548361062d565b14610994576040517f08c379a000000000000000000000000000000000000000000000000000000000815260040161098b906118f9565b60405180910390fd5b61099e8282611040565b8173ffffffffffffffffffffffffffffffffffffffff167fe6b83177f11971ba30369bb38b914ffba97d5969a3c857b286fa8fdbb150b3ba826040516109e491906119b9565b60405180910390a25050565b600660009054906101000a900460ff1681565b610a0b611038565b73ffffffffffffffffffffffffffffffffffffffff16610a2961077f565b73ffffffffffffffffffffffffffffffffffffffff1614610a7f576040517f08c379a0000000000000000000000000000000000000000000000000000000008152600401610a76906118b9565b60405180910390fd5b600660009054906101000a900460ff1615610acf576040517f08c379a0000000000000000000000000000000000000000000000000000000008152600401610ac690611879565b60405180910390fd5b6000610ad96103be565b11610b19576040517f08c379a0000000000000000000000000000000000000000000000000000000008152600401610b10906118d9565b60405180910390fd5b6001600660006101000a81548160ff0219169083151502179055507f6abad9b2a20416739cbda03e0ac177cb52e98e1292f764e43b470442bec2760060405160405180910390a1610b6861063f565b565b610b72611038565b73ffffffffffffffffffffffffffffffffffffffff16610b9061077f565b73ffffffffffffffffffffffffffffffffffffffff1614610be6576040517f08c379a0000000000000000000000000000000000000000000000000000000008152600401610bdd906118b9565b60405180910390fd5b600073ffffffffffffffffffffffffffffffffffffffff168173ffffffffffffffffffffffffffffffffffffffff161415610c56576040517f08c379a0000000000000000000000000000000000000000000000000000000008152600401610c4d90611859565b60405180910390fd5b8073ffffffffffffffffffffffffffffffffffffffff1660008054906101000a900473ffffffffffffffffffffffffffffffffffffffff1673ffffffffffffffffffffffffffffffffffffffff167f8be0079c531659141344cd1fd0a4f28419497f9722a3daafe3b4186f6b6457e060405160405180910390a3806000806101000a81548173ffffffffffffffffffffffffffffffffffffffff021916908373ffffffffffffffffffffffffffffffffffffffff16021790555050565b60007f0000000000000000000000000000000000000000000000000000000000000000905090565b600080600660009054906101000a900460ff16610d8d576040517f08c379a0000000000000000000000000000000000000000000000000000000008152600401610d8490611939565b60405180910390fd5b6000610d988461062d565b905060008111610ddd576040517f08c379a0000000000000000000000000000000000000000000000000000000008152600401610dd490611959565b60405180910390fd5b60007f000000000000000000000000000000000000000000000000000000000000000073ffffffffffffffffffffffffffffffffffffffff166370a08231306040518263ffffffff1660e01b8152600401610e3891906117b8565b60206040518083038186803b158015610e5057600080fd5b505afa158015610e64573d6000803e3d6000fd5b505050506040513d601f19601f82011682018060405250810190610e88919061152e565b90508060075414610ec357610ebc600754610eae8360085461118790919063ffffffff16565b61119d90919063ffffffff16565b9250610ec9565b60085492505b6000610f1d600960008873ffffffffffffffffffffffffffffffffffffffff1673ffffffffffffffffffffffffffffffffffffffff168152602001908152602001600020548561119d90919063ffffffff16565b90506000811115610f5757610f54610f336103be565b610f4685846111b390919063ffffffff16565b6111c990919063ffffffff16565b94505b505050915091565b6000600354905090565b610fea8363a9059cbb60e01b8484604051602401610f889291906117d3565b604051602081830303815290604052907bffffffffffffffffffffffffffffffffffffffffffffffffffffffff19166020820180517bffffffffffffffffffffffffffffffffffffffffffffffffffffffff83818316178352505050506111df565b505050565b6000600460008373ffffffffffffffffffffffffffffffffffffffff1673ffffffffffffffffffffffffffffffffffffffff168152602001908152602001600020549050919050565b600033905090565b6110a6600460008473ffffffffffffffffffffffffffffffffffffffff1673ffffffffffffffffffffffffffffffffffffffff168152602001908152602001600020546110988360035461118790919063ffffffff16565b61119d90919063ffffffff16565b6003819055508173ffffffffffffffffffffffffffffffffffffffff167fd8b455e949c1d522b95778231eec1beff214f4fbe062f64b18a86272caaa1fc7600460008573ffffffffffffffffffffffffffffffffffffffff1673ffffffffffffffffffffffffffffffffffffffff1681526020019081526020016000205483600354604051611137939291906119d4565b60405180910390a280600460008473ffffffffffffffffffffffffffffffffffffffff1673ffffffffffffffffffffffffffffffffffffffff168152602001908152602001600020819055505050565b600081836111959190611a58565b905092915050565b600081836111ab9190611b39565b905092915050565b600081836111c19190611adf565b905092915050565b600081836111d79190611aae565b905092915050565b6000611241826040518060400160405280602081526020017f5361666545524332303a206c6f772d6c6576656c2063616c6c206661696c65648152508573ffffffffffffffffffffffffffffffffffffffff166112a69092919063ffffffff16565b90506000815111156112a157808060200190518101906112619190611505565b6112a0576040517f08c379a000000000000000000000000000000000000000000000000000000000815260040161129790611979565b60405180910390fd5b5b505050565b60606112b584846000856112be565b90509392505050565b606082471015611303576040517f08c379a00000000000000000000000000000000000000000000000000000000081526004016112fa90611899565b60405180910390fd5b61130c856113d2565b61134b576040517f08c379a000000000000000000000000000000000000000000000000000000000815260040161134290611919565b60405180910390fd5b6000808673ffffffffffffffffffffffffffffffffffffffff16858760405161137491906117a1565b60006040518083038185875af1925050503d80600081146113b1576040519150601f19603f3d011682016040523d82523d6000602084013e6113b6565b606091505b50915091506113c68282866113e5565b92505050949350505050565b600080823b905060008111915050919050565b606083156113f557829050611445565b6000835111156114085782518084602001fd5b816040517f08c379a000000000000000000000000000000000000000000000000000000000815260040161143c9190611817565b60405180910390fd5b9392505050565b60008135905061145b81612007565b92915050565b6000815190506114708161201e565b92915050565b60008135905061148581612035565b92915050565b60008151905061149a81612035565b92915050565b6000602082840312156114b257600080fd5b60006114c08482850161144c565b91505092915050565b600080604083850312156114dc57600080fd5b60006114ea8582860161144c565b92505060206114fb85828601611476565b9150509250929050565b60006020828403121561151757600080fd5b600061152584828501611461565b91505092915050565b60006020828403121561154057600080fd5b600061154e8482850161148b565b91505092915050565b61156081611b6d565b82525050565b61156f81611b7f565b82525050565b600061158082611a26565b61158a8185611a3c565b935061159a818560208601611bc2565b80840191505092915050565b60006115b182611a31565b6115bb8185611a47565b93506115cb818560208601611bc2565b6115d481611cb4565b840191505092915050565b60006115ec602d83611a47565b91506115f782611cc5565b604082019050919050565b600061160f602683611a47565b915061161a82611d14565b604082019050919050565b6000611632602883611a47565b915061163d82611d63565b604082019050919050565b6000611655602683611a47565b915061166082611db2565b604082019050919050565b6000611678602083611a47565b915061168382611e01565b602082019050919050565b600061169b602783611a47565b91506116a682611e2a565b604082019050919050565b60006116be602983611a47565b91506116c982611e79565b604082019050919050565b60006116e1601d83611a47565b91506116ec82611ec8565b602082019050919050565b6000611704602c83611a47565b915061170f82611ef1565b604082019050919050565b6000611727602183611a47565b915061173282611f40565b604082019050919050565b600061174a602a83611a47565b915061175582611f8f565b604082019050919050565b600061176d601f83611a47565b915061177882611fde565b602082019050919050565b61178c81611bab565b82525050565b61179b81611bb5565b82525050565b60006117ad8284611575565b915081905092915050565b60006020820190506117cd6000830184611557565b92915050565b60006040820190506117e86000830185611557565b6117f56020830184611783565b9392505050565b60006020820190506118116000830184611566565b92915050565b6000602082019050818103600083015261183181846115a6565b905092915050565b60006020820190508181036000830152611852816115df565b9050919050565b6000602082019050818103600083015261187281611602565b9050919050565b6000602082019050818103600083015261189281611625565b9050919050565b600060208201905081810360008301526118b281611648565b9050919050565b600060208201905081810360008301526118d28161166b565b9050919050565b600060208201905081810360008301526118f28161168e565b9050919050565b60006020820190508181036000830152611912816116b1565b9050919050565b60006020820190508181036000830152611932816116d4565b9050919050565b60006020820190508181036000830152611952816116f7565b9050919050565b600060208201905081810360008301526119728161171a565b9050919050565b600060208201905081810360008301526119928161173d565b9050919050565b600060208201905081810360008301526119b281611760565b9050919050565b60006020820190506119ce6000830184611783565b92915050565b60006060820190506119e96000830186611783565b6119f66020830185611783565b611a036040830184611783565b949350505050565b6000602082019050611a206000830184611792565b92915050565b600081519050919050565b600081519050919050565b600081905092915050565b600082825260208201905092915050565b6000611a6382611bab565b9150611a6e83611bab565b9250827fffffffffffffffffffffffffffffffffffffffffffffffffffffffffffffffff03821115611aa357611aa2611c27565b5b828201905092915050565b6000611ab982611bab565b9150611ac483611bab565b925082611ad457611ad3611c56565b5b828204905092915050565b6000611aea82611bab565b9150611af583611bab565b9250817fffffffffffffffffffffffffffffffffffffffffffffffffffffffffffffffff0483118215151615611b2e57611b2d611c27565b5b828202905092915050565b6000611b4482611bab565b9150611b4f83611bab565b925082821015611b6257611b61611c27565b5b828203905092915050565b6000611b7882611b8b565b9050919050565b60008115159050919050565b600073ffffffffffffffffffffffffffffffffffffffff82169050919050565b6000819050919050565b600060ff82169050919050565b60005b83811015611be0578082015181840152602081019050611bc5565b83811115611bef576000848401525b50505050565b60006002820490506001821680611c0d57607f821691505b60208210811415611c2157611c20611c85565b5b50919050565b7f4e487b7100000000000000000000000000000000000000000000000000000000600052601160045260246000fd5b7f4e487b7100000000000000000000000000000000000000000000000000000000600052601260045260246000fd5b7f4e487b7100000000000000000000000000000000000000000000000000000000600052602260045260246000fd5b6000601f19601f8301169050919050565b7f546f6b656e416c6c6f6361746f723a20736861726573206d757374206265206760008201527f726561746572207468616e203000000000000000000000000000000000000000602082015250565b7f4f776e61626c653a206e6577206f776e657220697320746865207a65726f206160008201527f6464726573730000000000000000000000000000000000000000000000000000602082015250565b7f546f6b656e416c6c6f6361746f723a2062656e6566696369617269657320617260008201527f65206c6f636b6564000000000000000000000000000000000000000000000000602082015250565b7f416464726573733a20696e73756666696369656e742062616c616e636520666f60008201527f722063616c6c0000000000000000000000000000000000000000000000000000602082015250565b7f4f776e61626c653a2063616c6c6572206973206e6f7420746865206f776e6572600082015250565b7f546f6b656e416c6c6f6361746f723a206d75737420686176652062656e65666960008201527f6369617269657300000000000000000000000000000000000000000000000000602082015250565b7f546f6b656e416c6c6f6361746f723a2062656e656669636961727920616c726560008201527f6164792061646465640000000000000000000000000000000000000000000000602082015250565b7f416464726573733a2063616c6c20746f206e6f6e2d636f6e7472616374000000600082015250565b7f546f6b656e416c6c6f6361746f723a2062656e65666963696172696573206d7560008201527f7374206265206c6f636b65640000000000000000000000000000000000000000602082015250565b7f546f6b656e416c6c6f6361746f723a206e6f7420612062656e6566696369617260008201527f7900000000000000000000000000000000000000000000000000000000000000602082015250565b7f5361666545524332303a204552433230206f7065726174696f6e20646964206e60008201527f6f74207375636365656400000000000000000000000000000000000000000000602082015250565b7f5265656e7472616e637947756172643a207265656e7472616e742063616c6c00600082015250565b61201081611b6d565b811461201b57600080fd5b50565b61202781611b7f565b811461203257600080fd5b50565b61203e81611bab565b811461204957600080fd5b5056fea264697066735822122009d566977c21038bc9307d43643ca07ad3ed11f701384e73a1f19126296a934364736f6c63430008030033",
  "immutableReferences": {
    "15": [
      {
        "length": 32,
        "start": 977
      }
    ],
    "788": [
      {
        "length": 32,
        "start": 1167
      },
      {
        "length": 32,
        "start": 1237
      },
      {
        "length": 32,
        "start": 3351
      },
      {
        "length": 32,
        "start": 3553
      }
    ]
  },
  "source": "// SPDX-License-Identifier: MIT\r\n\r\npragma solidity ^0.8.3;\r\n\r\nimport \"../openzeppelin-solidity/contracts/Ownable.sol\";\r\nimport \"../openzeppelin-solidity/contracts/SafeMath.sol\";\r\nimport \"../openzeppelin-solidity/contracts/SafeERC20.sol\";\r\nimport \"../openzeppelin-solidity/contracts/ReentrancyGuard.sol\";\r\n\r\nimport \"./NonTransferrableToken.sol\";\r\nimport \"../interfaces/ITokenAllocator.sol\";\r\n\r\n/**\r\n * A contract that lets its beneficiaries receive tokens proportional to\r\n * their predetermined, non-transferrable share.\r\n */\r\ncontract TokenAllocator is\r\n    Ownable,\r\n    ITokenAllocator,\r\n    NonTransferrableToken,\r\n    ReentrancyGuard\r\n{\r\n    using SafeMath for uint256;\r\n    using SafeERC20 for IERC20;\r\n\r\n    /**\r\n     * If true, the cap table cannot be altered\r\n     */\r\n    bool public isLocked;\r\n\r\n    // Token allocated to beneficiaries.\r\n    IERC20 private immutable _token;\r\n\r\n    /**\r\n     * Total number of tokens in the contract after the last redemption\r\n     */\r\n    uint256 public balanceAfterLastRedemption;\r\n\r\n    /**\r\n     * Total number of tokens this contract has ever received\r\n     */\r\n    uint256 public totalTokensReceived;\r\n\r\n    /**\r\n     * Value of `totalTokensReceived` at the last time this\r\n     * beneficiary redeemed tokens. This is used to calculate\r\n     * the marginal additional tokens that this user has.\r\n     */\r\n    mapping(address => uint256) public totalTokensReceivedAtLastRedemption;\r\n\r\n    constructor(\r\n        string memory name_,\r\n        string memory symbol_,\r\n        uint8 decimals_,\r\n        address owner_,\r\n        address token_\r\n    ) NonTransferrableToken(name_, symbol_, decimals_) {\r\n        transferOwnership(owner_);\r\n        _token = IERC20(token_);\r\n    }\r\n\r\n    function token() external view override returns (address) {\r\n        return address(_token);\r\n    }\r\n\r\n    function totalSupply()\r\n        public\r\n        view\r\n        override(NonTransferrableToken, ITokenAllocator)\r\n        returns (uint256)\r\n    {\r\n        return NonTransferrableToken.totalSupply();\r\n    }\r\n\r\n    function balanceOf(address _account)\r\n        public\r\n        view\r\n        override(NonTransferrableToken, ITokenAllocator)\r\n        returns (uint256)\r\n    {\r\n        return NonTransferrableToken.balanceOf(_account);\r\n    }\r\n\r\n    modifier notLocked {\r\n        require(!isLocked, \"TokenAllocator: beneficiaries are locked\");\r\n        _;\r\n    }\r\n\r\n    /**\r\n     * Add a beneficiary to the splitter.\r\n     */\r\n    function addBeneficiary(address _address, uint256 _shares)\r\n        external\r\n        notLocked\r\n        onlyOwner\r\n    {\r\n        require(_shares > 0, \"TokenAllocator: shares must be greater than 0\");\r\n        require(\r\n            balanceOf(_address) == 0,\r\n            \"TokenAllocator: beneficiary already added\"\r\n        );\r\n        _setBalance(_address, _shares);\r\n        emit BeneficiaryAdded(_address, _shares);\r\n    }\r\n\r\n    /**\r\n     * Locks in the beneficiaries, preventing them from being modified in the future.\r\n     */\r\n    function lockBeneficiaries() external onlyOwner notLocked {\r\n        require(totalSupply() > 0, \"TokenAllocator: must have beneficiaries\");\r\n        isLocked = true;\r\n        emit BeneficiariesLocked();\r\n        renounceOwnership();\r\n    }\r\n\r\n    function earned(address _account)\r\n        external\r\n        view\r\n        override\r\n        returns (uint256 amount)\r\n    {\r\n        (amount, ) = _earned(_account);\r\n    }\r\n\r\n    /**\r\n     * Computes the number of tokens that can be received\r\n     * and the new `totalTokensReceived`.\r\n     */\r\n    function _earned(address _account)\r\n        private\r\n        view\r\n        returns (uint256 amount, uint256 totalTokens)\r\n    {\r\n        require(isLocked, \"TokenAllocator: beneficiaries must be locked\");\r\n        uint256 shares = balanceOf(_account);\r\n        require(shares > 0, \"TokenAllocator: not a beneficiary\");\r\n\r\n        // check if there are new tokens sent to the contract\r\n        uint256 newBalance = _token.balanceOf(address(this));\r\n\r\n        if (balanceAfterLastRedemption != newBalance) {\r\n            // if so, update totalTokensReceived\r\n            totalTokens = totalTokensReceived.add(newBalance).sub(\r\n                balanceAfterLastRedemption\r\n            );\r\n        } else {\r\n            totalTokens = totalTokensReceived;\r\n        }\r\n\r\n        // Check to see if we have tokens to redeem\r\n        uint256 changeSinceLastRedemption =\r\n            totalTokens.sub(totalTokensReceivedAtLastRedemption[_account]);\r\n        if (changeSinceLastRedemption > 0) {\r\n            // If so, transfer\r\n            amount = changeSinceLastRedemption.mul(shares).div(totalSupply());\r\n        }\r\n    }\r\n\r\n    /**\r\n     * Redeem tokens if the sender is the beneficiary\r\n     */\r\n    function getReward() external override nonReentrant returns (uint256) {\r\n        (uint256 amount, uint256 totalTokens) = _earned(msg.sender);\r\n        if (amount == 0) {\r\n            // Do nothing if there are no tokens to redeem\r\n            return 0;\r\n        }\r\n        totalTokensReceived = totalTokens;\r\n\r\n        // Transfer tokens\r\n        _token.safeTransfer(msg.sender, amount);\r\n\r\n        // Update beneficiary state\r\n        balanceAfterLastRedemption = _token.balanceOf(address(this));\r\n        totalTokensReceivedAtLastRedemption[msg.sender] = totalTokensReceived;\r\n        emit Redeemed(msg.sender, amount);\r\n        return amount;\r\n    }\r\n}\r\n",
  "sourcePath": "C:/Users/xavie/OneDrive/Desktop/TradeGen/Github/tradegen-farming/contracts/distribution/TokenAllocator.sol",
  "compiler": {
    "name": "solc",
    "version": "0.8.3+commit.8d00100c.Emscripten.clang"
  },
  "schemaVersion": "3.4.1",
  "updatedAt": "2021-07-12T00:22:57.876Z",
  "devdoc": {
    "kind": "dev",
    "methods": {
      "owner()": {
        "details": "Returns the address of the current owner."
      },
      "renounceOwnership()": {
        "details": "Leaves the contract without owner. It will not be possible to call `onlyOwner` functions anymore. Can only be called by the current owner. NOTE: Renouncing ownership will leave the contract without an owner, thereby removing any functionality that is only available to the owner."
      },
      "transferOwnership(address)": {
        "details": "Transfers ownership of the contract to a new account (`newOwner`). Can only be called by the current owner."
      }
    },
    "version": 1
  },
  "userdoc": {
    "events": {
      "BeneficiariesLocked()": {
        "notice": "Emitted when the beneficiaries are locked."
      },
      "BeneficiaryAdded(address,uint256)": {
        "notice": "Emitted when a beneficiary is added"
      },
      "Redeemed(address,uint256)": {
        "notice": "Emitted when tokens are redeemed"
      }
    },
    "kind": "user",
    "methods": {
      "addBeneficiary(address,uint256)": {
        "notice": "Add a beneficiary to the splitter."
      },
      "balanceAfterLastRedemption()": {
        "notice": "Total number of tokens in the contract after the last redemption"
      },
      "earned(address)": {
        "notice": "Computes the pending reward"
      },
      "getReward()": {
        "notice": "Redeem tokens if the sender is the beneficiary"
      },
      "isLocked()": {
        "notice": "If true, the cap table cannot be altered"
      },
      "lockBeneficiaries()": {
        "notice": "Locks in the beneficiaries, preventing them from being modified in the future."
      },
      "totalTokensReceived()": {
        "notice": "Total number of tokens this contract has ever received"
      },
      "totalTokensReceivedAtLastRedemption(address)": {
        "notice": "Value of `totalTokensReceived` at the last time this beneficiary redeemed tokens. This is used to calculate the marginal additional tokens that this user has."
      }
    },
    "notice": "A contract that lets its beneficiaries receive tokens proportional to their predetermined, non-transferrable share.",
    "version": 1
  }
}